{
	"contracts/hw/ex7.sol": {
		"Example03": {
			"abi": [
				{
					"inputs": [
						{
							"internalType": "uint256",
							"name": "password",
							"type": "uint256"
						}
					],
					"name": "deposit",
					"outputs": [],
					"stateMutability": "payable",
					"type": "function"
				},
				{
					"inputs": [
						{
							"internalType": "uint256",
							"name": "password",
							"type": "uint256"
						}
					],
					"name": "getBlance",
					"outputs": [
						{
							"internalType": "uint256",
							"name": "",
							"type": "uint256"
						}
					],
					"stateMutability": "view",
					"type": "function"
				},
				{
					"inputs": [
						{
							"internalType": "uint256",
							"name": "input",
							"type": "uint256"
						}
					],
					"name": "hash",
					"outputs": [
						{
							"internalType": "uint256",
							"name": "",
							"type": "uint256"
						}
					],
					"stateMutability": "pure",
					"type": "function"
				},
				{
					"inputs": [
						{
							"internalType": "uint256",
							"name": "password",
							"type": "uint256"
						},
						{
							"internalType": "uint256",
							"name": "amount",
							"type": "uint256"
						}
					],
					"name": "withdraw",
					"outputs": [],
					"stateMutability": "nonpayable",
					"type": "function"
				}
			],
			"devdoc": {
				"kind": "dev",
				"methods": {},
				"version": 1
			},
			"evm": {
				"assembly": "    /* \"contracts/hw/ex7.sol\":66:1574  contract Example03 {... */\n  mstore(0x40, 0x80)\n  callvalue\n  dup1\n  iszero\n  tag_1\n  jumpi\n  revert(0x00, 0x00)\ntag_1:\n  pop\n  dataSize(sub_0)\n  dup1\n  dataOffset(sub_0)\n  0x00\n  codecopy\n  0x00\n  return\nstop\n\nsub_0: assembly {\n        /* \"contracts/hw/ex7.sol\":66:1574  contract Example03 {... */\n      mstore(0x40, 0x80)\n      jumpi(tag_1, lt(calldatasize, 0x04))\n      shr(0xe0, calldataload(0x00))\n      dup1\n      0x441a3e70\n      eq\n      tag_2\n      jumpi\n      dup1\n      0x632a47aa\n      eq\n      tag_3\n      jumpi\n      dup1\n      0xb189fd4c\n      eq\n      tag_4\n      jumpi\n      dup1\n      0xb6b55f25\n      eq\n      tag_5\n      jumpi\n    tag_1:\n      revert(0x00, 0x00)\n        /* \"contracts/hw/ex7.sol\":758:1148  function withdraw(uint256 password , uint256 amount) public {... */\n    tag_2:\n      callvalue\n      dup1\n      iszero\n      tag_6\n      jumpi\n      revert(0x00, 0x00)\n    tag_6:\n      pop\n      tag_7\n      0x04\n      dup1\n      calldatasize\n      sub\n      dup2\n      add\n      swap1\n      tag_8\n      swap2\n      swap1\n      tag_9\n      jump\t// in\n    tag_8:\n      tag_10\n      jump\t// in\n    tag_7:\n      stop\n        /* \"contracts/hw/ex7.sol\":1156:1444  function getBlance(uint256 password) public  view returns (uint256) {... */\n    tag_3:\n      callvalue\n      dup1\n      iszero\n      tag_11\n      jumpi\n      revert(0x00, 0x00)\n    tag_11:\n      pop\n      tag_12\n      0x04\n      dup1\n      calldatasize\n      sub\n      dup2\n      add\n      swap1\n      tag_13\n      swap2\n      swap1\n      tag_14\n      jump\t// in\n    tag_13:\n      tag_15\n      jump\t// in\n    tag_12:\n      mload(0x40)\n      tag_16\n      swap2\n      swap1\n      tag_17\n      jump\t// in\n    tag_16:\n      mload(0x40)\n      dup1\n      swap2\n      sub\n      swap1\n      return\n        /* \"contracts/hw/ex7.sol\":1452:1571  function hash(uint256 input) public pure returns (uint256) {... */\n    tag_4:\n      callvalue\n      dup1\n      iszero\n      tag_18\n      jumpi\n      revert(0x00, 0x00)\n    tag_18:\n      pop\n      tag_19\n      0x04\n      dup1\n      calldatasize\n      sub\n      dup2\n      add\n      swap1\n      tag_20\n      swap2\n      swap1\n      tag_14\n      jump\t// in\n    tag_20:\n      tag_21\n      jump\t// in\n    tag_19:\n      mload(0x40)\n      tag_22\n      swap2\n      swap1\n      tag_17\n      jump\t// in\n    tag_22:\n      mload(0x40)\n      dup1\n      swap2\n      sub\n      swap1\n      return\n        /* \"contracts/hw/ex7.sol\":249:750  function deposit(uint256 password) public payable {... */\n    tag_5:\n      tag_23\n      0x04\n      dup1\n      calldatasize\n      sub\n      dup2\n      add\n      swap1\n      tag_24\n      swap2\n      swap1\n      tag_14\n      jump\t// in\n    tag_24:\n      tag_25\n      jump\t// in\n    tag_23:\n      stop\n        /* \"contracts/hw/ex7.sol\":758:1148  function withdraw(uint256 password , uint256 amount) public {... */\n    tag_10:\n        /* \"contracts/hw/ex7.sol\":829:843  uint256 hashed */\n      0x00\n        /* \"contracts/hw/ex7.sol\":854:882  sha256(abi.encode(password)) */\n      0x02\n        /* \"contracts/hw/ex7.sol\":872:880  password */\n      dup4\n        /* \"contracts/hw/ex7.sol\":861:881  abi.encode(password) */\n      add(0x20, mload(0x40))\n      tag_27\n      swap2\n      swap1\n      tag_17\n      jump\t// in\n    tag_27:\n      mload(0x40)\n      0x20\n      dup2\n      dup4\n      sub\n      sub\n      dup2\n      mstore\n      swap1\n      0x40\n      mstore\n        /* \"contracts/hw/ex7.sol\":854:882  sha256(abi.encode(password)) */\n      mload(0x40)\n      tag_28\n      swap2\n      swap1\n      tag_29\n      jump\t// in\n    tag_28:\n      0x20\n      mload(0x40)\n      dup1\n      dup4\n      sub\n      dup2\n      dup6\n      gas\n      staticcall\n      iszero\n      dup1\n      iszero\n      tag_31\n      jumpi\n      returndatacopy(0x00, 0x00, returndatasize)\n      revert(0x00, returndatasize)\n    tag_31:\n      pop\n      pop\n      pop\n      mload(0x40)\n      returndatasize\n      not(0x1f)\n      0x1f\n      dup3\n      add\n      and\n      dup3\n      add\n      dup1\n      0x40\n      mstore\n      pop\n      dup2\n      add\n      swap1\n      tag_32\n      swap2\n      swap1\n      tag_33\n      jump\t// in\n    tag_32:\n        /* \"contracts/hw/ex7.sol\":846:883  uint256(sha256(abi.encode(password))) */\n      0x00\n      shr\n        /* \"contracts/hw/ex7.sol\":829:883  uint256 hashed = uint256(sha256(abi.encode(password))) */\n      swap1\n      pop\n        /* \"contracts/hw/ex7.sol\":932:938  hashed */\n      dup1\n        /* \"contracts/hw/ex7.sol\":897:903  vaults */\n      0x00\n        /* \"contracts/hw/ex7.sol\":897:915  vaults[msg.sender] */\n      0x00\n        /* \"contracts/hw/ex7.sol\":904:914  msg.sender */\n      caller\n        /* \"contracts/hw/ex7.sol\":897:915  vaults[msg.sender] */\n      0xffffffffffffffffffffffffffffffffffffffff\n      and\n      0xffffffffffffffffffffffffffffffffffffffff\n      and\n      dup2\n      mstore\n      0x20\n      add\n      swap1\n      dup2\n      mstore\n      0x20\n      add\n      0x00\n      keccak256\n        /* \"contracts/hw/ex7.sol\":897:928  vaults[msg.sender].passwordHash */\n      0x01\n      add\n      sload\n        /* \"contracts/hw/ex7.sol\":897:938  vaults[msg.sender].passwordHash == hashed */\n      sub\n        /* \"contracts/hw/ex7.sol\":894:1141  if(vaults[msg.sender].passwordHash == hashed)... */\n      tag_34\n      jumpi\n        /* \"contracts/hw/ex7.sol\":997:1003  amount */\n      dup2\n        /* \"contracts/hw/ex7.sol\":967:973  vaults */\n      0x00\n        /* \"contracts/hw/ex7.sol\":967:985  vaults[msg.sender] */\n      0x00\n        /* \"contracts/hw/ex7.sol\":974:984  msg.sender */\n      caller\n        /* \"contracts/hw/ex7.sol\":967:985  vaults[msg.sender] */\n      0xffffffffffffffffffffffffffffffffffffffff\n      and\n      0xffffffffffffffffffffffffffffffffffffffff\n      and\n      dup2\n      mstore\n      0x20\n      add\n      swap1\n      dup2\n      mstore\n      0x20\n      add\n      0x00\n      keccak256\n        /* \"contracts/hw/ex7.sol\":967:993  vaults[msg.sender].balance */\n      0x00\n      add\n      sload\n        /* \"contracts/hw/ex7.sol\":967:1003  vaults[msg.sender].balance >= amount */\n      lt\n        /* \"contracts/hw/ex7.sol\":964:1130  if(vaults[msg.sender].balance >= amount){... */\n      tag_35\n      jumpi\n        /* \"contracts/hw/ex7.sol\":1053:1059  amount */\n      dup2\n        /* \"contracts/hw/ex7.sol\":1023:1029  vaults */\n      0x00\n        /* \"contracts/hw/ex7.sol\":1023:1041  vaults[msg.sender] */\n      0x00\n        /* \"contracts/hw/ex7.sol\":1030:1040  msg.sender */\n      caller\n        /* \"contracts/hw/ex7.sol\":1023:1041  vaults[msg.sender] */\n      0xffffffffffffffffffffffffffffffffffffffff\n      and\n      0xffffffffffffffffffffffffffffffffffffffff\n      and\n      dup2\n      mstore\n      0x20\n      add\n      swap1\n      dup2\n      mstore\n      0x20\n      add\n      0x00\n      keccak256\n        /* \"contracts/hw/ex7.sol\":1023:1049  vaults[msg.sender].balance */\n      0x00\n      add\n      0x00\n        /* \"contracts/hw/ex7.sol\":1023:1059  vaults[msg.sender].balance -= amount */\n      dup3\n      dup3\n      sload\n      tag_36\n      swap2\n      swap1\n      tag_37\n      jump\t// in\n    tag_36:\n      swap3\n      pop\n      pop\n      dup2\n      swap1\n      sstore\n      pop\n        /* \"contracts/hw/ex7.sol\":1086:1096  msg.sender */\n      caller\n        /* \"contracts/hw/ex7.sol\":1078:1106  payable(msg.sender).transfer */\n      0xffffffffffffffffffffffffffffffffffffffff\n      and\n        /* \"contracts/hw/ex7.sol\":1078:1114  payable(msg.sender).transfer(amount) */\n      0x08fc\n        /* \"contracts/hw/ex7.sol\":1107:1113  amount */\n      dup4\n        /* \"contracts/hw/ex7.sol\":1078:1114  payable(msg.sender).transfer(amount) */\n      swap1\n      dup2\n      iszero\n      mul\n      swap1\n      mload(0x40)\n      0x00\n      mload(0x40)\n      dup1\n      dup4\n      sub\n      dup2\n      dup6\n      dup9\n      dup9\n      call\n      swap4\n      pop\n      pop\n      pop\n      pop\n      iszero\n      dup1\n      iszero\n      tag_39\n      jumpi\n      returndatacopy(0x00, 0x00, returndatasize)\n      revert(0x00, returndatasize)\n    tag_39:\n      pop\n        /* \"contracts/hw/ex7.sol\":964:1130  if(vaults[msg.sender].balance >= amount){... */\n    tag_35:\n        /* \"contracts/hw/ex7.sol\":894:1141  if(vaults[msg.sender].passwordHash == hashed)... */\n    tag_34:\n        /* \"contracts/hw/ex7.sol\":818:1148  {... */\n      pop\n        /* \"contracts/hw/ex7.sol\":758:1148  function withdraw(uint256 password , uint256 amount) public {... */\n      pop\n      pop\n      jump\t// out\n        /* \"contracts/hw/ex7.sol\":1156:1444  function getBlance(uint256 password) public  view returns (uint256) {... */\n    tag_15:\n        /* \"contracts/hw/ex7.sol\":1215:1222  uint256 */\n      0x00\n        /* \"contracts/hw/ex7.sol\":1235:1249  uint256 hashed */\n      0x00\n        /* \"contracts/hw/ex7.sol\":1260:1288  sha256(abi.encode(password)) */\n      0x02\n        /* \"contracts/hw/ex7.sol\":1278:1286  password */\n      dup4\n        /* \"contracts/hw/ex7.sol\":1267:1287  abi.encode(password) */\n      add(0x20, mload(0x40))\n      tag_41\n      swap2\n      swap1\n      tag_17\n      jump\t// in\n    tag_41:\n      mload(0x40)\n      0x20\n      dup2\n      dup4\n      sub\n      sub\n      dup2\n      mstore\n      swap1\n      0x40\n      mstore\n        /* \"contracts/hw/ex7.sol\":1260:1288  sha256(abi.encode(password)) */\n      mload(0x40)\n      tag_42\n      swap2\n      swap1\n      tag_29\n      jump\t// in\n    tag_42:\n      0x20\n      mload(0x40)\n      dup1\n      dup4\n      sub\n      dup2\n      dup6\n      gas\n      staticcall\n      iszero\n      dup1\n      iszero\n      tag_44\n      jumpi\n      returndatacopy(0x00, 0x00, returndatasize)\n      revert(0x00, returndatasize)\n    tag_44:\n      pop\n      pop\n      pop\n      mload(0x40)\n      returndatasize\n      not(0x1f)\n      0x1f\n      dup3\n      add\n      and\n      dup3\n      add\n      dup1\n      0x40\n      mstore\n      pop\n      dup2\n      add\n      swap1\n      tag_45\n      swap2\n      swap1\n      tag_33\n      jump\t// in\n    tag_45:\n        /* \"contracts/hw/ex7.sol\":1252:1289  uint256(sha256(abi.encode(password))) */\n      0x00\n      shr\n        /* \"contracts/hw/ex7.sol\":1235:1289  uint256 hashed = uint256(sha256(abi.encode(password))) */\n      swap1\n      pop\n        /* \"contracts/hw/ex7.sol\":1338:1344  hashed */\n      dup1\n        /* \"contracts/hw/ex7.sol\":1303:1309  vaults */\n      0x00\n        /* \"contracts/hw/ex7.sol\":1303:1321  vaults[msg.sender] */\n      0x00\n        /* \"contracts/hw/ex7.sol\":1310:1320  msg.sender */\n      caller\n        /* \"contracts/hw/ex7.sol\":1303:1321  vaults[msg.sender] */\n      0xffffffffffffffffffffffffffffffffffffffff\n      and\n      0xffffffffffffffffffffffffffffffffffffffff\n      and\n      dup2\n      mstore\n      0x20\n      add\n      swap1\n      dup2\n      mstore\n      0x20\n      add\n      0x00\n      keccak256\n        /* \"contracts/hw/ex7.sol\":1303:1334  vaults[msg.sender].passwordHash */\n      0x01\n      add\n      sload\n        /* \"contracts/hw/ex7.sol\":1303:1344  vaults[msg.sender].passwordHash == hashed */\n      sub\n        /* \"contracts/hw/ex7.sol\":1300:1418  if(vaults[msg.sender].passwordHash == hashed)... */\n      tag_46\n      jumpi\n        /* \"contracts/hw/ex7.sol\":1377:1383  vaults */\n      0x00\n        /* \"contracts/hw/ex7.sol\":1377:1395  vaults[msg.sender] */\n      0x00\n        /* \"contracts/hw/ex7.sol\":1384:1394  msg.sender */\n      caller\n        /* \"contracts/hw/ex7.sol\":1377:1395  vaults[msg.sender] */\n      0xffffffffffffffffffffffffffffffffffffffff\n      and\n      0xffffffffffffffffffffffffffffffffffffffff\n      and\n      dup2\n      mstore\n      0x20\n      add\n      swap1\n      dup2\n      mstore\n      0x20\n      add\n      0x00\n      keccak256\n        /* \"contracts/hw/ex7.sol\":1377:1403  vaults[msg.sender].balance */\n      0x00\n      add\n      sload\n        /* \"contracts/hw/ex7.sol\":1370:1403  return vaults[msg.sender].balance */\n      swap2\n      pop\n      pop\n      jump(tag_40)\n        /* \"contracts/hw/ex7.sol\":1300:1418  if(vaults[msg.sender].passwordHash == hashed)... */\n    tag_46:\n        /* \"contracts/hw/ex7.sol\":1435:1436  0 */\n      0x00\n        /* \"contracts/hw/ex7.sol\":1428:1436  return 0 */\n      swap2\n      pop\n      pop\n        /* \"contracts/hw/ex7.sol\":1156:1444  function getBlance(uint256 password) public  view returns (uint256) {... */\n    tag_40:\n      swap2\n      swap1\n      pop\n      jump\t// out\n        /* \"contracts/hw/ex7.sol\":1452:1571  function hash(uint256 input) public pure returns (uint256) {... */\n    tag_21:\n        /* \"contracts/hw/ex7.sol\":1502:1509  uint256 */\n      0x00\n        /* \"contracts/hw/ex7.sol\":1537:1562  sha256(abi.encode(input)) */\n      0x02\n        /* \"contracts/hw/ex7.sol\":1555:1560  input */\n      dup3\n        /* \"contracts/hw/ex7.sol\":1544:1561  abi.encode(input) */\n      add(0x20, mload(0x40))\n      tag_48\n      swap2\n      swap1\n      tag_17\n      jump\t// in\n    tag_48:\n      mload(0x40)\n      0x20\n      dup2\n      dup4\n      sub\n      sub\n      dup2\n      mstore\n      swap1\n      0x40\n      mstore\n        /* \"contracts/hw/ex7.sol\":1537:1562  sha256(abi.encode(input)) */\n      mload(0x40)\n      tag_49\n      swap2\n      swap1\n      tag_29\n      jump\t// in\n    tag_49:\n      0x20\n      mload(0x40)\n      dup1\n      dup4\n      sub\n      dup2\n      dup6\n      gas\n      staticcall\n      iszero\n      dup1\n      iszero\n      tag_51\n      jumpi\n      returndatacopy(0x00, 0x00, returndatasize)\n      revert(0x00, returndatasize)\n    tag_51:\n      pop\n      pop\n      pop\n      mload(0x40)\n      returndatasize\n      not(0x1f)\n      0x1f\n      dup3\n      add\n      and\n      dup3\n      add\n      dup1\n      0x40\n      mstore\n      pop\n      dup2\n      add\n      swap1\n      tag_52\n      swap2\n      swap1\n      tag_33\n      jump\t// in\n    tag_52:\n        /* \"contracts/hw/ex7.sol\":1529:1563  uint256(sha256(abi.encode(input))) */\n      0x00\n      shr\n        /* \"contracts/hw/ex7.sol\":1522:1563  return uint256(sha256(abi.encode(input))) */\n      swap1\n      pop\n        /* \"contracts/hw/ex7.sol\":1452:1571  function hash(uint256 input) public pure returns (uint256) {... */\n      swap2\n      swap1\n      pop\n      jump\t// out\n        /* \"contracts/hw/ex7.sol\":249:750  function deposit(uint256 password) public payable {... */\n    tag_25:\n        /* \"contracts/hw/ex7.sol\":310:324  uint256 hashed */\n      0x00\n        /* \"contracts/hw/ex7.sol\":335:363  sha256(abi.encode(password)) */\n      0x02\n        /* \"contracts/hw/ex7.sol\":353:361  password */\n      dup3\n        /* \"contracts/hw/ex7.sol\":342:362  abi.encode(password) */\n      add(0x20, mload(0x40))\n      tag_54\n      swap2\n      swap1\n      tag_17\n      jump\t// in\n    tag_54:\n      mload(0x40)\n      0x20\n      dup2\n      dup4\n      sub\n      sub\n      dup2\n      mstore\n      swap1\n      0x40\n      mstore\n        /* \"contracts/hw/ex7.sol\":335:363  sha256(abi.encode(password)) */\n      mload(0x40)\n      tag_55\n      swap2\n      swap1\n      tag_29\n      jump\t// in\n    tag_55:\n      0x20\n      mload(0x40)\n      dup1\n      dup4\n      sub\n      dup2\n      dup6\n      gas\n      staticcall\n      iszero\n      dup1\n      iszero\n      tag_57\n      jumpi\n      returndatacopy(0x00, 0x00, returndatasize)\n      revert(0x00, returndatasize)\n    tag_57:\n      pop\n      pop\n      pop\n      mload(0x40)\n      returndatasize\n      not(0x1f)\n      0x1f\n      dup3\n      add\n      and\n      dup3\n      add\n      dup1\n      0x40\n      mstore\n      pop\n      dup2\n      add\n      swap1\n      tag_58\n      swap2\n      swap1\n      tag_33\n      jump\t// in\n    tag_58:\n        /* \"contracts/hw/ex7.sol\":327:364  uint256(sha256(abi.encode(password))) */\n      0x00\n      shr\n        /* \"contracts/hw/ex7.sol\":310:364  uint256 hashed = uint256(sha256(abi.encode(password))) */\n      swap1\n      pop\n        /* \"contracts/hw/ex7.sol\":379:385  vaults */\n      0x00\n        /* \"contracts/hw/ex7.sol\":379:397  vaults[msg.sender] */\n      0x00\n        /* \"contracts/hw/ex7.sol\":386:396  msg.sender */\n      caller\n        /* \"contracts/hw/ex7.sol\":379:397  vaults[msg.sender] */\n      0xffffffffffffffffffffffffffffffffffffffff\n      and\n      0xffffffffffffffffffffffffffffffffffffffff\n      and\n      dup2\n      mstore\n      0x20\n      add\n      swap1\n      dup2\n      mstore\n      0x20\n      add\n      0x00\n      keccak256\n        /* \"contracts/hw/ex7.sol\":379:404  vaults[msg.sender].exists */\n      0x02\n      add\n      0x00\n      swap1\n      sload\n      swap1\n      0x0100\n      exp\n      swap1\n      div\n      0xff\n      and\n        /* \"contracts/hw/ex7.sol\":375:743  if(!vaults[msg.sender].exists){... */\n      tag_59\n      jumpi\n        /* \"contracts/hw/ex7.sol\":441:570  vault({... */\n      mload(0x40)\n      dup1\n      0x60\n      add\n      0x40\n      mstore\n      dup1\n        /* \"contracts/hw/ex7.sol\":475:484  msg.value */\n      callvalue\n        /* \"contracts/hw/ex7.sol\":441:570  vault({... */\n      dup2\n      mstore\n      0x20\n      add\n        /* \"contracts/hw/ex7.sol\":517:523  hashed */\n      dup3\n        /* \"contracts/hw/ex7.sol\":441:570  vault({... */\n      dup2\n      mstore\n      0x20\n      add\n        /* \"contracts/hw/ex7.sol\":550:554  true */\n      0x01\n        /* \"contracts/hw/ex7.sol\":441:570  vault({... */\n      iszero\n      iszero\n      dup2\n      mstore\n      pop\n        /* \"contracts/hw/ex7.sol\":420:426  vaults */\n      0x00\n        /* \"contracts/hw/ex7.sol\":420:438  vaults[msg.sender] */\n      0x00\n        /* \"contracts/hw/ex7.sol\":427:437  msg.sender */\n      caller\n        /* \"contracts/hw/ex7.sol\":420:438  vaults[msg.sender] */\n      0xffffffffffffffffffffffffffffffffffffffff\n      and\n      0xffffffffffffffffffffffffffffffffffffffff\n      and\n      dup2\n      mstore\n      0x20\n      add\n      swap1\n      dup2\n      mstore\n      0x20\n      add\n      0x00\n      keccak256\n        /* \"contracts/hw/ex7.sol\":420:570  vaults[msg.sender] = vault({... */\n      0x00\n      dup3\n      add\n      mload\n      dup2\n      0x00\n      add\n      sstore\n      0x20\n      dup3\n      add\n      mload\n      dup2\n      0x01\n      add\n      sstore\n      0x40\n      dup3\n      add\n      mload\n      dup2\n      0x02\n      add\n      exp(0x0100, 0x00)\n      dup2\n      sload\n      dup2\n      0xff\n      mul\n      not\n      and\n      swap1\n      dup4\n      iszero\n      iszero\n      mul\n      or\n      swap1\n      sstore\n      pop\n      swap1\n      pop\n      pop\n        /* \"contracts/hw/ex7.sol\":375:743  if(!vaults[msg.sender].exists){... */\n      jump(tag_60)\n    tag_59:\n        /* \"contracts/hw/ex7.sol\":650:656  hashed */\n      dup1\n        /* \"contracts/hw/ex7.sol\":615:621  vaults */\n      0x00\n        /* \"contracts/hw/ex7.sol\":615:633  vaults[msg.sender] */\n      0x00\n        /* \"contracts/hw/ex7.sol\":622:632  msg.sender */\n      caller\n        /* \"contracts/hw/ex7.sol\":615:633  vaults[msg.sender] */\n      0xffffffffffffffffffffffffffffffffffffffff\n      and\n      0xffffffffffffffffffffffffffffffffffffffff\n      and\n      dup2\n      mstore\n      0x20\n      add\n      swap1\n      dup2\n      mstore\n      0x20\n      add\n      0x00\n      keccak256\n        /* \"contracts/hw/ex7.sol\":615:646  vaults[msg.sender].passwordHash */\n      0x01\n      add\n      sload\n        /* \"contracts/hw/ex7.sol\":615:656  vaults[msg.sender].passwordHash == hashed */\n      sub\n        /* \"contracts/hw/ex7.sol\":611:732  if((vaults[msg.sender].passwordHash == hashed)){... */\n      tag_61\n      jumpi\n        /* \"contracts/hw/ex7.sol\":707:716  msg.value */\n      callvalue\n        /* \"contracts/hw/ex7.sol\":677:683  vaults */\n      0x00\n        /* \"contracts/hw/ex7.sol\":677:695  vaults[msg.sender] */\n      0x00\n        /* \"contracts/hw/ex7.sol\":684:694  msg.sender */\n      caller\n        /* \"contracts/hw/ex7.sol\":677:695  vaults[msg.sender] */\n      0xffffffffffffffffffffffffffffffffffffffff\n      and\n      0xffffffffffffffffffffffffffffffffffffffff\n      and\n      dup2\n      mstore\n      0x20\n      add\n      swap1\n      dup2\n      mstore\n      0x20\n      add\n      0x00\n      keccak256\n        /* \"contracts/hw/ex7.sol\":677:703  vaults[msg.sender].balance */\n      0x00\n      add\n      0x00\n        /* \"contracts/hw/ex7.sol\":677:716  vaults[msg.sender].balance += msg.value */\n      dup3\n      dup3\n      sload\n      tag_62\n      swap2\n      swap1\n      tag_63\n      jump\t// in\n    tag_62:\n      swap3\n      pop\n      pop\n      dup2\n      swap1\n      sstore\n      pop\n        /* \"contracts/hw/ex7.sol\":611:732  if((vaults[msg.sender].passwordHash == hashed)){... */\n    tag_61:\n        /* \"contracts/hw/ex7.sol\":375:743  if(!vaults[msg.sender].exists){... */\n    tag_60:\n        /* \"contracts/hw/ex7.sol\":299:750  {... */\n      pop\n        /* \"contracts/hw/ex7.sol\":249:750  function deposit(uint256 password) public payable {... */\n      pop\n      jump\t// out\n        /* \"#utility.yul\":88:205   */\n    tag_65:\n        /* \"#utility.yul\":197:198   */\n      0x00\n        /* \"#utility.yul\":194:195   */\n      0x00\n        /* \"#utility.yul\":187:199   */\n      revert\n        /* \"#utility.yul\":334:411   */\n    tag_67:\n        /* \"#utility.yul\":371:378   */\n      0x00\n        /* \"#utility.yul\":400:405   */\n      dup2\n        /* \"#utility.yul\":389:405   */\n      swap1\n      pop\n        /* \"#utility.yul\":334:411   */\n      swap2\n      swap1\n      pop\n      jump\t// out\n        /* \"#utility.yul\":417:539   */\n    tag_68:\n        /* \"#utility.yul\":490:514   */\n      tag_85\n        /* \"#utility.yul\":508:513   */\n      dup2\n        /* \"#utility.yul\":490:514   */\n      tag_67\n      jump\t// in\n    tag_85:\n        /* \"#utility.yul\":483:488   */\n      dup2\n        /* \"#utility.yul\":480:515   */\n      eq\n        /* \"#utility.yul\":470:533   */\n      tag_86\n      jumpi\n        /* \"#utility.yul\":529:530   */\n      0x00\n        /* \"#utility.yul\":526:527   */\n      0x00\n        /* \"#utility.yul\":519:531   */\n      revert\n        /* \"#utility.yul\":470:533   */\n    tag_86:\n        /* \"#utility.yul\":417:539   */\n      pop\n      jump\t// out\n        /* \"#utility.yul\":545:684   */\n    tag_69:\n        /* \"#utility.yul\":591:596   */\n      0x00\n        /* \"#utility.yul\":629:635   */\n      dup2\n        /* \"#utility.yul\":616:636   */\n      calldataload\n        /* \"#utility.yul\":607:636   */\n      swap1\n      pop\n        /* \"#utility.yul\":645:678   */\n      tag_88\n        /* \"#utility.yul\":672:677   */\n      dup2\n        /* \"#utility.yul\":645:678   */\n      tag_68\n      jump\t// in\n    tag_88:\n        /* \"#utility.yul\":545:684   */\n      swap3\n      swap2\n      pop\n      pop\n      jump\t// out\n        /* \"#utility.yul\":690:1164   */\n    tag_9:\n        /* \"#utility.yul\":758:764   */\n      0x00\n        /* \"#utility.yul\":766:772   */\n      0x00\n        /* \"#utility.yul\":815:817   */\n      0x40\n        /* \"#utility.yul\":803:812   */\n      dup4\n        /* \"#utility.yul\":794:801   */\n      dup6\n        /* \"#utility.yul\":790:813   */\n      sub\n        /* \"#utility.yul\":786:818   */\n      slt\n        /* \"#utility.yul\":783:902   */\n      iszero\n      tag_90\n      jumpi\n        /* \"#utility.yul\":821:900   */\n      tag_91\n      tag_65\n      jump\t// in\n    tag_91:\n        /* \"#utility.yul\":783:902   */\n    tag_90:\n        /* \"#utility.yul\":941:942   */\n      0x00\n        /* \"#utility.yul\":966:1019   */\n      tag_92\n        /* \"#utility.yul\":1011:1018   */\n      dup6\n        /* \"#utility.yul\":1002:1008   */\n      dup3\n        /* \"#utility.yul\":991:1000   */\n      dup7\n        /* \"#utility.yul\":987:1009   */\n      add\n        /* \"#utility.yul\":966:1019   */\n      tag_69\n      jump\t// in\n    tag_92:\n        /* \"#utility.yul\":956:1019   */\n      swap3\n      pop\n        /* \"#utility.yul\":912:1029   */\n      pop\n        /* \"#utility.yul\":1068:1070   */\n      0x20\n        /* \"#utility.yul\":1094:1147   */\n      tag_93\n        /* \"#utility.yul\":1139:1146   */\n      dup6\n        /* \"#utility.yul\":1130:1136   */\n      dup3\n        /* \"#utility.yul\":1119:1128   */\n      dup7\n        /* \"#utility.yul\":1115:1137   */\n      add\n        /* \"#utility.yul\":1094:1147   */\n      tag_69\n      jump\t// in\n    tag_93:\n        /* \"#utility.yul\":1084:1147   */\n      swap2\n      pop\n        /* \"#utility.yul\":1039:1157   */\n      pop\n        /* \"#utility.yul\":690:1164   */\n      swap3\n      pop\n      swap3\n      swap1\n      pop\n      jump\t// out\n        /* \"#utility.yul\":1170:1499   */\n    tag_14:\n        /* \"#utility.yul\":1229:1235   */\n      0x00\n        /* \"#utility.yul\":1278:1280   */\n      0x20\n        /* \"#utility.yul\":1266:1275   */\n      dup3\n        /* \"#utility.yul\":1257:1264   */\n      dup5\n        /* \"#utility.yul\":1253:1276   */\n      sub\n        /* \"#utility.yul\":1249:1281   */\n      slt\n        /* \"#utility.yul\":1246:1365   */\n      iszero\n      tag_95\n      jumpi\n        /* \"#utility.yul\":1284:1363   */\n      tag_96\n      tag_65\n      jump\t// in\n    tag_96:\n        /* \"#utility.yul\":1246:1365   */\n    tag_95:\n        /* \"#utility.yul\":1404:1405   */\n      0x00\n        /* \"#utility.yul\":1429:1482   */\n      tag_97\n        /* \"#utility.yul\":1474:1481   */\n      dup5\n        /* \"#utility.yul\":1465:1471   */\n      dup3\n        /* \"#utility.yul\":1454:1463   */\n      dup6\n        /* \"#utility.yul\":1450:1472   */\n      add\n        /* \"#utility.yul\":1429:1482   */\n      tag_69\n      jump\t// in\n    tag_97:\n        /* \"#utility.yul\":1419:1482   */\n      swap2\n      pop\n        /* \"#utility.yul\":1375:1492   */\n      pop\n        /* \"#utility.yul\":1170:1499   */\n      swap3\n      swap2\n      pop\n      pop\n      jump\t// out\n        /* \"#utility.yul\":1505:1623   */\n    tag_70:\n        /* \"#utility.yul\":1592:1616   */\n      tag_99\n        /* \"#utility.yul\":1610:1615   */\n      dup2\n        /* \"#utility.yul\":1592:1616   */\n      tag_67\n      jump\t// in\n    tag_99:\n        /* \"#utility.yul\":1587:1590   */\n      dup3\n        /* \"#utility.yul\":1580:1617   */\n      mstore\n        /* \"#utility.yul\":1505:1623   */\n      pop\n      pop\n      jump\t// out\n        /* \"#utility.yul\":1629:1851   */\n    tag_17:\n        /* \"#utility.yul\":1722:1726   */\n      0x00\n        /* \"#utility.yul\":1760:1762   */\n      0x20\n        /* \"#utility.yul\":1749:1758   */\n      dup3\n        /* \"#utility.yul\":1745:1763   */\n      add\n        /* \"#utility.yul\":1737:1763   */\n      swap1\n      pop\n        /* \"#utility.yul\":1773:1844   */\n      tag_101\n        /* \"#utility.yul\":1841:1842   */\n      0x00\n        /* \"#utility.yul\":1830:1839   */\n      dup4\n        /* \"#utility.yul\":1826:1843   */\n      add\n        /* \"#utility.yul\":1817:1823   */\n      dup5\n        /* \"#utility.yul\":1773:1844   */\n      tag_70\n      jump\t// in\n    tag_101:\n        /* \"#utility.yul\":1629:1851   */\n      swap3\n      swap2\n      pop\n      pop\n      jump\t// out\n        /* \"#utility.yul\":1857:1955   */\n    tag_71:\n        /* \"#utility.yul\":1908:1914   */\n      0x00\n        /* \"#utility.yul\":1942:1947   */\n      dup2\n        /* \"#utility.yul\":1936:1948   */\n      mload\n        /* \"#utility.yul\":1926:1948   */\n      swap1\n      pop\n        /* \"#utility.yul\":1857:1955   */\n      swap2\n      swap1\n      pop\n      jump\t// out\n        /* \"#utility.yul\":1961:2108   */\n    tag_72:\n        /* \"#utility.yul\":2062:2073   */\n      0x00\n        /* \"#utility.yul\":2099:2102   */\n      dup2\n        /* \"#utility.yul\":2084:2102   */\n      swap1\n      pop\n        /* \"#utility.yul\":1961:2108   */\n      swap3\n      swap2\n      pop\n      pop\n      jump\t// out\n        /* \"#utility.yul\":2114:2253   */\n    tag_73:\n        /* \"#utility.yul\":2203:2209   */\n      dup3\n        /* \"#utility.yul\":2198:2201   */\n      dup2\n        /* \"#utility.yul\":2193:2196   */\n      dup4\n        /* \"#utility.yul\":2187:2210   */\n      mcopy\n        /* \"#utility.yul\":2244:2245   */\n      0x00\n        /* \"#utility.yul\":2235:2241   */\n      dup4\n        /* \"#utility.yul\":2230:2233   */\n      dup4\n        /* \"#utility.yul\":2226:2242   */\n      add\n        /* \"#utility.yul\":2219:2246   */\n      mstore\n        /* \"#utility.yul\":2114:2253   */\n      pop\n      pop\n      pop\n      jump\t// out\n        /* \"#utility.yul\":2259:2645   */\n    tag_74:\n        /* \"#utility.yul\":2363:2366   */\n      0x00\n        /* \"#utility.yul\":2391:2429   */\n      tag_106\n        /* \"#utility.yul\":2423:2428   */\n      dup3\n        /* \"#utility.yul\":2391:2429   */\n      tag_71\n      jump\t// in\n    tag_106:\n        /* \"#utility.yul\":2445:2533   */\n      tag_107\n        /* \"#utility.yul\":2526:2532   */\n      dup2\n        /* \"#utility.yul\":2521:2524   */\n      dup6\n        /* \"#utility.yul\":2445:2533   */\n      tag_72\n      jump\t// in\n    tag_107:\n        /* \"#utility.yul\":2438:2533   */\n      swap4\n      pop\n        /* \"#utility.yul\":2542:2607   */\n      tag_108\n        /* \"#utility.yul\":2600:2606   */\n      dup2\n        /* \"#utility.yul\":2595:2598   */\n      dup6\n        /* \"#utility.yul\":2588:2592   */\n      0x20\n        /* \"#utility.yul\":2581:2586   */\n      dup7\n        /* \"#utility.yul\":2577:2593   */\n      add\n        /* \"#utility.yul\":2542:2607   */\n      tag_73\n      jump\t// in\n    tag_108:\n        /* \"#utility.yul\":2632:2638   */\n      dup1\n        /* \"#utility.yul\":2627:2630   */\n      dup5\n        /* \"#utility.yul\":2623:2639   */\n      add\n        /* \"#utility.yul\":2616:2639   */\n      swap2\n      pop\n        /* \"#utility.yul\":2367:2645   */\n      pop\n        /* \"#utility.yul\":2259:2645   */\n      swap3\n      swap2\n      pop\n      pop\n      jump\t// out\n        /* \"#utility.yul\":2651:2922   */\n    tag_29:\n        /* \"#utility.yul\":2781:2784   */\n      0x00\n        /* \"#utility.yul\":2803:2896   */\n      tag_110\n        /* \"#utility.yul\":2892:2895   */\n      dup3\n        /* \"#utility.yul\":2883:2889   */\n      dup5\n        /* \"#utility.yul\":2803:2896   */\n      tag_74\n      jump\t// in\n    tag_110:\n        /* \"#utility.yul\":2796:2896   */\n      swap2\n      pop\n        /* \"#utility.yul\":2913:2916   */\n      dup2\n        /* \"#utility.yul\":2906:2916   */\n      swap1\n      pop\n        /* \"#utility.yul\":2651:2922   */\n      swap3\n      swap2\n      pop\n      pop\n      jump\t// out\n        /* \"#utility.yul\":2928:3005   */\n    tag_75:\n        /* \"#utility.yul\":2965:2972   */\n      0x00\n        /* \"#utility.yul\":2994:2999   */\n      dup2\n        /* \"#utility.yul\":2983:2999   */\n      swap1\n      pop\n        /* \"#utility.yul\":2928:3005   */\n      swap2\n      swap1\n      pop\n      jump\t// out\n        /* \"#utility.yul\":3011:3133   */\n    tag_76:\n        /* \"#utility.yul\":3084:3108   */\n      tag_113\n        /* \"#utility.yul\":3102:3107   */\n      dup2\n        /* \"#utility.yul\":3084:3108   */\n      tag_75\n      jump\t// in\n    tag_113:\n        /* \"#utility.yul\":3077:3082   */\n      dup2\n        /* \"#utility.yul\":3074:3109   */\n      eq\n        /* \"#utility.yul\":3064:3127   */\n      tag_114\n      jumpi\n        /* \"#utility.yul\":3123:3124   */\n      0x00\n        /* \"#utility.yul\":3120:3121   */\n      0x00\n        /* \"#utility.yul\":3113:3125   */\n      revert\n        /* \"#utility.yul\":3064:3127   */\n    tag_114:\n        /* \"#utility.yul\":3011:3133   */\n      pop\n      jump\t// out\n        /* \"#utility.yul\":3139:3282   */\n    tag_77:\n        /* \"#utility.yul\":3196:3201   */\n      0x00\n        /* \"#utility.yul\":3227:3233   */\n      dup2\n        /* \"#utility.yul\":3221:3234   */\n      mload\n        /* \"#utility.yul\":3212:3234   */\n      swap1\n      pop\n        /* \"#utility.yul\":3243:3276   */\n      tag_116\n        /* \"#utility.yul\":3270:3275   */\n      dup2\n        /* \"#utility.yul\":3243:3276   */\n      tag_76\n      jump\t// in\n    tag_116:\n        /* \"#utility.yul\":3139:3282   */\n      swap3\n      swap2\n      pop\n      pop\n      jump\t// out\n        /* \"#utility.yul\":3288:3639   */\n    tag_33:\n        /* \"#utility.yul\":3358:3364   */\n      0x00\n        /* \"#utility.yul\":3407:3409   */\n      0x20\n        /* \"#utility.yul\":3395:3404   */\n      dup3\n        /* \"#utility.yul\":3386:3393   */\n      dup5\n        /* \"#utility.yul\":3382:3405   */\n      sub\n        /* \"#utility.yul\":3378:3410   */\n      slt\n        /* \"#utility.yul\":3375:3494   */\n      iszero\n      tag_118\n      jumpi\n        /* \"#utility.yul\":3413:3492   */\n      tag_119\n      tag_65\n      jump\t// in\n    tag_119:\n        /* \"#utility.yul\":3375:3494   */\n    tag_118:\n        /* \"#utility.yul\":3533:3534   */\n      0x00\n        /* \"#utility.yul\":3558:3622   */\n      tag_120\n        /* \"#utility.yul\":3614:3621   */\n      dup5\n        /* \"#utility.yul\":3605:3611   */\n      dup3\n        /* \"#utility.yul\":3594:3603   */\n      dup6\n        /* \"#utility.yul\":3590:3612   */\n      add\n        /* \"#utility.yul\":3558:3622   */\n      tag_77\n      jump\t// in\n    tag_120:\n        /* \"#utility.yul\":3548:3622   */\n      swap2\n      pop\n        /* \"#utility.yul\":3504:3632   */\n      pop\n        /* \"#utility.yul\":3288:3639   */\n      swap3\n      swap2\n      pop\n      pop\n      jump\t// out\n        /* \"#utility.yul\":3645:3825   */\n    tag_78:\n        /* \"#utility.yul\":3693:3770   */\n      0x4e487b7100000000000000000000000000000000000000000000000000000000\n        /* \"#utility.yul\":3690:3691   */\n      0x00\n        /* \"#utility.yul\":3683:3771   */\n      mstore\n        /* \"#utility.yul\":3790:3794   */\n      0x11\n        /* \"#utility.yul\":3787:3788   */\n      0x04\n        /* \"#utility.yul\":3780:3795   */\n      mstore\n        /* \"#utility.yul\":3814:3818   */\n      0x24\n        /* \"#utility.yul\":3811:3812   */\n      0x00\n        /* \"#utility.yul\":3804:3819   */\n      revert\n        /* \"#utility.yul\":3831:4025   */\n    tag_37:\n        /* \"#utility.yul\":3871:3875   */\n      0x00\n        /* \"#utility.yul\":3891:3911   */\n      tag_123\n        /* \"#utility.yul\":3909:3910   */\n      dup3\n        /* \"#utility.yul\":3891:3911   */\n      tag_67\n      jump\t// in\n    tag_123:\n        /* \"#utility.yul\":3886:3911   */\n      swap2\n      pop\n        /* \"#utility.yul\":3925:3945   */\n      tag_124\n        /* \"#utility.yul\":3943:3944   */\n      dup4\n        /* \"#utility.yul\":3925:3945   */\n      tag_67\n      jump\t// in\n    tag_124:\n        /* \"#utility.yul\":3920:3945   */\n      swap3\n      pop\n        /* \"#utility.yul\":3969:3970   */\n      dup3\n        /* \"#utility.yul\":3966:3967   */\n      dup3\n        /* \"#utility.yul\":3962:3971   */\n      sub\n        /* \"#utility.yul\":3954:3971   */\n      swap1\n      pop\n        /* \"#utility.yul\":3993:3994   */\n      dup2\n        /* \"#utility.yul\":3987:3991   */\n      dup2\n        /* \"#utility.yul\":3984:3995   */\n      gt\n        /* \"#utility.yul\":3981:4018   */\n      iszero\n      tag_125\n      jumpi\n        /* \"#utility.yul\":3998:4016   */\n      tag_126\n      tag_78\n      jump\t// in\n    tag_126:\n        /* \"#utility.yul\":3981:4018   */\n    tag_125:\n        /* \"#utility.yul\":3831:4025   */\n      swap3\n      swap2\n      pop\n      pop\n      jump\t// out\n        /* \"#utility.yul\":4031:4222   */\n    tag_63:\n        /* \"#utility.yul\":4071:4074   */\n      0x00\n        /* \"#utility.yul\":4090:4110   */\n      tag_128\n        /* \"#utility.yul\":4108:4109   */\n      dup3\n        /* \"#utility.yul\":4090:4110   */\n      tag_67\n      jump\t// in\n    tag_128:\n        /* \"#utility.yul\":4085:4110   */\n      swap2\n      pop\n        /* \"#utility.yul\":4124:4144   */\n      tag_129\n        /* \"#utility.yul\":4142:4143   */\n      dup4\n        /* \"#utility.yul\":4124:4144   */\n      tag_67\n      jump\t// in\n    tag_129:\n        /* \"#utility.yul\":4119:4144   */\n      swap3\n      pop\n        /* \"#utility.yul\":4167:4168   */\n      dup3\n        /* \"#utility.yul\":4164:4165   */\n      dup3\n        /* \"#utility.yul\":4160:4169   */\n      add\n        /* \"#utility.yul\":4153:4169   */\n      swap1\n      pop\n        /* \"#utility.yul\":4188:4191   */\n      dup1\n        /* \"#utility.yul\":4185:4186   */\n      dup3\n        /* \"#utility.yul\":4182:4192   */\n      gt\n        /* \"#utility.yul\":4179:4215   */\n      iszero\n      tag_130\n      jumpi\n        /* \"#utility.yul\":4195:4213   */\n      tag_131\n      tag_78\n      jump\t// in\n    tag_131:\n        /* \"#utility.yul\":4179:4215   */\n    tag_130:\n        /* \"#utility.yul\":4031:4222   */\n      swap3\n      swap2\n      pop\n      pop\n      jump\t// out\n\n    auxdata: 0xa2646970667358221220adc9ea1d15b2408e4322bc1eebf400ae84a9795b8004c976995b6fbc4f47541c64736f6c634300081e0033\n}\n",
				"bytecode": {
					"linkReferences": {},
					"object": "6080604052348015600e575f5ffd5b506108678061001c5f395ff3fe60806040526004361061003e575f3560e01c8063441a3e7014610042578063632a47aa1461006a578063b189fd4c146100a6578063b6b55f25146100e2575b5f5ffd5b34801561004d575f5ffd5b5061006860048036038101906100639190610647565b6100fe565b005b348015610075575f5ffd5b50610090600480360381019061008b9190610685565b61029a565b60405161009d91906106bf565b60405180910390f35b3480156100b1575f5ffd5b506100cc60048036038101906100c79190610685565b6103a4565b6040516100d991906106bf565b60405180910390f35b6100fc60048036038101906100f79190610685565b61041b565b005b5f60028360405160200161011291906106bf565b60405160208183030381529060405260405161012e919061072a565b602060405180830381855afa158015610149573d5f5f3e3d5ffd5b5050506040513d601f19601f8201168201806040525081019061016c9190610773565b5f1c9050805f5f3373ffffffffffffffffffffffffffffffffffffffff1673ffffffffffffffffffffffffffffffffffffffff1681526020019081526020015f20600101540361029557815f5f3373ffffffffffffffffffffffffffffffffffffffff1673ffffffffffffffffffffffffffffffffffffffff1681526020019081526020015f205f01541061029457815f5f3373ffffffffffffffffffffffffffffffffffffffff1673ffffffffffffffffffffffffffffffffffffffff1681526020019081526020015f205f015f82825461024891906107cb565b925050819055503373ffffffffffffffffffffffffffffffffffffffff166108fc8390811502906040515f60405180830381858888f19350505050158015610292573d5f5f3e3d5ffd5b505b5b505050565b5f5f6002836040516020016102af91906106bf565b6040516020818303038152906040526040516102cb919061072a565b602060405180830381855afa1580156102e6573d5f5f3e3d5ffd5b5050506040513d601f19601f820116820180604052508101906103099190610773565b5f1c9050805f5f3373ffffffffffffffffffffffffffffffffffffffff1673ffffffffffffffffffffffffffffffffffffffff1681526020019081526020015f20600101540361039a575f5f3373ffffffffffffffffffffffffffffffffffffffff1673ffffffffffffffffffffffffffffffffffffffff1681526020019081526020015f205f015491505061039f565b5f9150505b919050565b5f6002826040516020016103b891906106bf565b6040516020818303038152906040526040516103d4919061072a565b602060405180830381855afa1580156103ef573d5f5f3e3d5ffd5b5050506040513d601f19601f820116820180604052508101906104129190610773565b5f1c9050919050565b5f60028260405160200161042f91906106bf565b60405160208183030381529060405260405161044b919061072a565b602060405180830381855afa158015610466573d5f5f3e3d5ffd5b5050506040513d601f19601f820116820180604052508101906104899190610773565b5f1c90505f5f3373ffffffffffffffffffffffffffffffffffffffff1673ffffffffffffffffffffffffffffffffffffffff1681526020019081526020015f206002015f9054906101000a900460ff16610570576040518060600160405280348152602001828152602001600115158152505f5f3373ffffffffffffffffffffffffffffffffffffffff1673ffffffffffffffffffffffffffffffffffffffff1681526020019081526020015f205f820151815f0155602082015181600101556040820151816002015f6101000a81548160ff02191690831515021790555090505061060c565b805f5f3373ffffffffffffffffffffffffffffffffffffffff1673ffffffffffffffffffffffffffffffffffffffff1681526020019081526020015f20600101540361060b57345f5f3373ffffffffffffffffffffffffffffffffffffffff1673ffffffffffffffffffffffffffffffffffffffff1681526020019081526020015f205f015f82825461060391906107fe565b925050819055505b5b5050565b5f5ffd5b5f819050919050565b61062681610614565b8114610630575f5ffd5b50565b5f813590506106418161061d565b92915050565b5f5f6040838503121561065d5761065c610610565b5b5f61066a85828601610633565b925050602061067b85828601610633565b9150509250929050565b5f6020828403121561069a57610699610610565b5b5f6106a784828501610633565b91505092915050565b6106b981610614565b82525050565b5f6020820190506106d25f8301846106b0565b92915050565b5f81519050919050565b5f81905092915050565b8281835e5f83830152505050565b5f610704826106d8565b61070e81856106e2565b935061071e8185602086016106ec565b80840191505092915050565b5f61073582846106fa565b915081905092915050565b5f819050919050565b61075281610740565b811461075c575f5ffd5b50565b5f8151905061076d81610749565b92915050565b5f6020828403121561078857610787610610565b5b5f6107958482850161075f565b91505092915050565b7f4e487b71000000000000000000000000000000000000000000000000000000005f52601160045260245ffd5b5f6107d582610614565b91506107e083610614565b92508282039050818111156107f8576107f761079e565b5b92915050565b5f61080882610614565b915061081383610614565b925082820190508082111561082b5761082a61079e565b5b9291505056fea2646970667358221220adc9ea1d15b2408e4322bc1eebf400ae84a9795b8004c976995b6fbc4f47541c64736f6c634300081e0033",
					"opcodes": "PUSH1 0x80 PUSH1 0x40 MSTORE CALLVALUE DUP1 ISZERO PUSH1 0xE JUMPI PUSH0 PUSH0 REVERT JUMPDEST POP PUSH2 0x867 DUP1 PUSH2 0x1C PUSH0 CODECOPY PUSH0 RETURN INVALID PUSH1 0x80 PUSH1 0x40 MSTORE PUSH1 0x4 CALLDATASIZE LT PUSH2 0x3E JUMPI PUSH0 CALLDATALOAD PUSH1 0xE0 SHR DUP1 PUSH4 0x441A3E70 EQ PUSH2 0x42 JUMPI DUP1 PUSH4 0x632A47AA EQ PUSH2 0x6A JUMPI DUP1 PUSH4 0xB189FD4C EQ PUSH2 0xA6 JUMPI DUP1 PUSH4 0xB6B55F25 EQ PUSH2 0xE2 JUMPI JUMPDEST PUSH0 PUSH0 REVERT JUMPDEST CALLVALUE DUP1 ISZERO PUSH2 0x4D JUMPI PUSH0 PUSH0 REVERT JUMPDEST POP PUSH2 0x68 PUSH1 0x4 DUP1 CALLDATASIZE SUB DUP2 ADD SWAP1 PUSH2 0x63 SWAP2 SWAP1 PUSH2 0x647 JUMP JUMPDEST PUSH2 0xFE JUMP JUMPDEST STOP JUMPDEST CALLVALUE DUP1 ISZERO PUSH2 0x75 JUMPI PUSH0 PUSH0 REVERT JUMPDEST POP PUSH2 0x90 PUSH1 0x4 DUP1 CALLDATASIZE SUB DUP2 ADD SWAP1 PUSH2 0x8B SWAP2 SWAP1 PUSH2 0x685 JUMP JUMPDEST PUSH2 0x29A JUMP JUMPDEST PUSH1 0x40 MLOAD PUSH2 0x9D SWAP2 SWAP1 PUSH2 0x6BF JUMP JUMPDEST PUSH1 0x40 MLOAD DUP1 SWAP2 SUB SWAP1 RETURN JUMPDEST CALLVALUE DUP1 ISZERO PUSH2 0xB1 JUMPI PUSH0 PUSH0 REVERT JUMPDEST POP PUSH2 0xCC PUSH1 0x4 DUP1 CALLDATASIZE SUB DUP2 ADD SWAP1 PUSH2 0xC7 SWAP2 SWAP1 PUSH2 0x685 JUMP JUMPDEST PUSH2 0x3A4 JUMP JUMPDEST PUSH1 0x40 MLOAD PUSH2 0xD9 SWAP2 SWAP1 PUSH2 0x6BF JUMP JUMPDEST PUSH1 0x40 MLOAD DUP1 SWAP2 SUB SWAP1 RETURN JUMPDEST PUSH2 0xFC PUSH1 0x4 DUP1 CALLDATASIZE SUB DUP2 ADD SWAP1 PUSH2 0xF7 SWAP2 SWAP1 PUSH2 0x685 JUMP JUMPDEST PUSH2 0x41B JUMP JUMPDEST STOP JUMPDEST PUSH0 PUSH1 0x2 DUP4 PUSH1 0x40 MLOAD PUSH1 0x20 ADD PUSH2 0x112 SWAP2 SWAP1 PUSH2 0x6BF JUMP JUMPDEST PUSH1 0x40 MLOAD PUSH1 0x20 DUP2 DUP4 SUB SUB DUP2 MSTORE SWAP1 PUSH1 0x40 MSTORE PUSH1 0x40 MLOAD PUSH2 0x12E SWAP2 SWAP1 PUSH2 0x72A JUMP JUMPDEST PUSH1 0x20 PUSH1 0x40 MLOAD DUP1 DUP4 SUB DUP2 DUP6 GAS STATICCALL ISZERO DUP1 ISZERO PUSH2 0x149 JUMPI RETURNDATASIZE PUSH0 PUSH0 RETURNDATACOPY RETURNDATASIZE PUSH0 REVERT JUMPDEST POP POP POP PUSH1 0x40 MLOAD RETURNDATASIZE PUSH1 0x1F NOT PUSH1 0x1F DUP3 ADD AND DUP3 ADD DUP1 PUSH1 0x40 MSTORE POP DUP2 ADD SWAP1 PUSH2 0x16C SWAP2 SWAP1 PUSH2 0x773 JUMP JUMPDEST PUSH0 SHR SWAP1 POP DUP1 PUSH0 PUSH0 CALLER PUSH20 0xFFFFFFFFFFFFFFFFFFFFFFFFFFFFFFFFFFFFFFFF AND PUSH20 0xFFFFFFFFFFFFFFFFFFFFFFFFFFFFFFFFFFFFFFFF AND DUP2 MSTORE PUSH1 0x20 ADD SWAP1 DUP2 MSTORE PUSH1 0x20 ADD PUSH0 KECCAK256 PUSH1 0x1 ADD SLOAD SUB PUSH2 0x295 JUMPI DUP2 PUSH0 PUSH0 CALLER PUSH20 0xFFFFFFFFFFFFFFFFFFFFFFFFFFFFFFFFFFFFFFFF AND PUSH20 0xFFFFFFFFFFFFFFFFFFFFFFFFFFFFFFFFFFFFFFFF AND DUP2 MSTORE PUSH1 0x20 ADD SWAP1 DUP2 MSTORE PUSH1 0x20 ADD PUSH0 KECCAK256 PUSH0 ADD SLOAD LT PUSH2 0x294 JUMPI DUP2 PUSH0 PUSH0 CALLER PUSH20 0xFFFFFFFFFFFFFFFFFFFFFFFFFFFFFFFFFFFFFFFF AND PUSH20 0xFFFFFFFFFFFFFFFFFFFFFFFFFFFFFFFFFFFFFFFF AND DUP2 MSTORE PUSH1 0x20 ADD SWAP1 DUP2 MSTORE PUSH1 0x20 ADD PUSH0 KECCAK256 PUSH0 ADD PUSH0 DUP3 DUP3 SLOAD PUSH2 0x248 SWAP2 SWAP1 PUSH2 0x7CB JUMP JUMPDEST SWAP3 POP POP DUP2 SWAP1 SSTORE POP CALLER PUSH20 0xFFFFFFFFFFFFFFFFFFFFFFFFFFFFFFFFFFFFFFFF AND PUSH2 0x8FC DUP4 SWAP1 DUP2 ISZERO MUL SWAP1 PUSH1 0x40 MLOAD PUSH0 PUSH1 0x40 MLOAD DUP1 DUP4 SUB DUP2 DUP6 DUP9 DUP9 CALL SWAP4 POP POP POP POP ISZERO DUP1 ISZERO PUSH2 0x292 JUMPI RETURNDATASIZE PUSH0 PUSH0 RETURNDATACOPY RETURNDATASIZE PUSH0 REVERT JUMPDEST POP JUMPDEST JUMPDEST POP POP POP JUMP JUMPDEST PUSH0 PUSH0 PUSH1 0x2 DUP4 PUSH1 0x40 MLOAD PUSH1 0x20 ADD PUSH2 0x2AF SWAP2 SWAP1 PUSH2 0x6BF JUMP JUMPDEST PUSH1 0x40 MLOAD PUSH1 0x20 DUP2 DUP4 SUB SUB DUP2 MSTORE SWAP1 PUSH1 0x40 MSTORE PUSH1 0x40 MLOAD PUSH2 0x2CB SWAP2 SWAP1 PUSH2 0x72A JUMP JUMPDEST PUSH1 0x20 PUSH1 0x40 MLOAD DUP1 DUP4 SUB DUP2 DUP6 GAS STATICCALL ISZERO DUP1 ISZERO PUSH2 0x2E6 JUMPI RETURNDATASIZE PUSH0 PUSH0 RETURNDATACOPY RETURNDATASIZE PUSH0 REVERT JUMPDEST POP POP POP PUSH1 0x40 MLOAD RETURNDATASIZE PUSH1 0x1F NOT PUSH1 0x1F DUP3 ADD AND DUP3 ADD DUP1 PUSH1 0x40 MSTORE POP DUP2 ADD SWAP1 PUSH2 0x309 SWAP2 SWAP1 PUSH2 0x773 JUMP JUMPDEST PUSH0 SHR SWAP1 POP DUP1 PUSH0 PUSH0 CALLER PUSH20 0xFFFFFFFFFFFFFFFFFFFFFFFFFFFFFFFFFFFFFFFF AND PUSH20 0xFFFFFFFFFFFFFFFFFFFFFFFFFFFFFFFFFFFFFFFF AND DUP2 MSTORE PUSH1 0x20 ADD SWAP1 DUP2 MSTORE PUSH1 0x20 ADD PUSH0 KECCAK256 PUSH1 0x1 ADD SLOAD SUB PUSH2 0x39A JUMPI PUSH0 PUSH0 CALLER PUSH20 0xFFFFFFFFFFFFFFFFFFFFFFFFFFFFFFFFFFFFFFFF AND PUSH20 0xFFFFFFFFFFFFFFFFFFFFFFFFFFFFFFFFFFFFFFFF AND DUP2 MSTORE PUSH1 0x20 ADD SWAP1 DUP2 MSTORE PUSH1 0x20 ADD PUSH0 KECCAK256 PUSH0 ADD SLOAD SWAP2 POP POP PUSH2 0x39F JUMP JUMPDEST PUSH0 SWAP2 POP POP JUMPDEST SWAP2 SWAP1 POP JUMP JUMPDEST PUSH0 PUSH1 0x2 DUP3 PUSH1 0x40 MLOAD PUSH1 0x20 ADD PUSH2 0x3B8 SWAP2 SWAP1 PUSH2 0x6BF JUMP JUMPDEST PUSH1 0x40 MLOAD PUSH1 0x20 DUP2 DUP4 SUB SUB DUP2 MSTORE SWAP1 PUSH1 0x40 MSTORE PUSH1 0x40 MLOAD PUSH2 0x3D4 SWAP2 SWAP1 PUSH2 0x72A JUMP JUMPDEST PUSH1 0x20 PUSH1 0x40 MLOAD DUP1 DUP4 SUB DUP2 DUP6 GAS STATICCALL ISZERO DUP1 ISZERO PUSH2 0x3EF JUMPI RETURNDATASIZE PUSH0 PUSH0 RETURNDATACOPY RETURNDATASIZE PUSH0 REVERT JUMPDEST POP POP POP PUSH1 0x40 MLOAD RETURNDATASIZE PUSH1 0x1F NOT PUSH1 0x1F DUP3 ADD AND DUP3 ADD DUP1 PUSH1 0x40 MSTORE POP DUP2 ADD SWAP1 PUSH2 0x412 SWAP2 SWAP1 PUSH2 0x773 JUMP JUMPDEST PUSH0 SHR SWAP1 POP SWAP2 SWAP1 POP JUMP JUMPDEST PUSH0 PUSH1 0x2 DUP3 PUSH1 0x40 MLOAD PUSH1 0x20 ADD PUSH2 0x42F SWAP2 SWAP1 PUSH2 0x6BF JUMP JUMPDEST PUSH1 0x40 MLOAD PUSH1 0x20 DUP2 DUP4 SUB SUB DUP2 MSTORE SWAP1 PUSH1 0x40 MSTORE PUSH1 0x40 MLOAD PUSH2 0x44B SWAP2 SWAP1 PUSH2 0x72A JUMP JUMPDEST PUSH1 0x20 PUSH1 0x40 MLOAD DUP1 DUP4 SUB DUP2 DUP6 GAS STATICCALL ISZERO DUP1 ISZERO PUSH2 0x466 JUMPI RETURNDATASIZE PUSH0 PUSH0 RETURNDATACOPY RETURNDATASIZE PUSH0 REVERT JUMPDEST POP POP POP PUSH1 0x40 MLOAD RETURNDATASIZE PUSH1 0x1F NOT PUSH1 0x1F DUP3 ADD AND DUP3 ADD DUP1 PUSH1 0x40 MSTORE POP DUP2 ADD SWAP1 PUSH2 0x489 SWAP2 SWAP1 PUSH2 0x773 JUMP JUMPDEST PUSH0 SHR SWAP1 POP PUSH0 PUSH0 CALLER PUSH20 0xFFFFFFFFFFFFFFFFFFFFFFFFFFFFFFFFFFFFFFFF AND PUSH20 0xFFFFFFFFFFFFFFFFFFFFFFFFFFFFFFFFFFFFFFFF AND DUP2 MSTORE PUSH1 0x20 ADD SWAP1 DUP2 MSTORE PUSH1 0x20 ADD PUSH0 KECCAK256 PUSH1 0x2 ADD PUSH0 SWAP1 SLOAD SWAP1 PUSH2 0x100 EXP SWAP1 DIV PUSH1 0xFF AND PUSH2 0x570 JUMPI PUSH1 0x40 MLOAD DUP1 PUSH1 0x60 ADD PUSH1 0x40 MSTORE DUP1 CALLVALUE DUP2 MSTORE PUSH1 0x20 ADD DUP3 DUP2 MSTORE PUSH1 0x20 ADD PUSH1 0x1 ISZERO ISZERO DUP2 MSTORE POP PUSH0 PUSH0 CALLER PUSH20 0xFFFFFFFFFFFFFFFFFFFFFFFFFFFFFFFFFFFFFFFF AND PUSH20 0xFFFFFFFFFFFFFFFFFFFFFFFFFFFFFFFFFFFFFFFF AND DUP2 MSTORE PUSH1 0x20 ADD SWAP1 DUP2 MSTORE PUSH1 0x20 ADD PUSH0 KECCAK256 PUSH0 DUP3 ADD MLOAD DUP2 PUSH0 ADD SSTORE PUSH1 0x20 DUP3 ADD MLOAD DUP2 PUSH1 0x1 ADD SSTORE PUSH1 0x40 DUP3 ADD MLOAD DUP2 PUSH1 0x2 ADD PUSH0 PUSH2 0x100 EXP DUP2 SLOAD DUP2 PUSH1 0xFF MUL NOT AND SWAP1 DUP4 ISZERO ISZERO MUL OR SWAP1 SSTORE POP SWAP1 POP POP PUSH2 0x60C JUMP JUMPDEST DUP1 PUSH0 PUSH0 CALLER PUSH20 0xFFFFFFFFFFFFFFFFFFFFFFFFFFFFFFFFFFFFFFFF AND PUSH20 0xFFFFFFFFFFFFFFFFFFFFFFFFFFFFFFFFFFFFFFFF AND DUP2 MSTORE PUSH1 0x20 ADD SWAP1 DUP2 MSTORE PUSH1 0x20 ADD PUSH0 KECCAK256 PUSH1 0x1 ADD SLOAD SUB PUSH2 0x60B JUMPI CALLVALUE PUSH0 PUSH0 CALLER PUSH20 0xFFFFFFFFFFFFFFFFFFFFFFFFFFFFFFFFFFFFFFFF AND PUSH20 0xFFFFFFFFFFFFFFFFFFFFFFFFFFFFFFFFFFFFFFFF AND DUP2 MSTORE PUSH1 0x20 ADD SWAP1 DUP2 MSTORE PUSH1 0x20 ADD PUSH0 KECCAK256 PUSH0 ADD PUSH0 DUP3 DUP3 SLOAD PUSH2 0x603 SWAP2 SWAP1 PUSH2 0x7FE JUMP JUMPDEST SWAP3 POP POP DUP2 SWAP1 SSTORE POP JUMPDEST JUMPDEST POP POP JUMP JUMPDEST PUSH0 PUSH0 REVERT JUMPDEST PUSH0 DUP2 SWAP1 POP SWAP2 SWAP1 POP JUMP JUMPDEST PUSH2 0x626 DUP2 PUSH2 0x614 JUMP JUMPDEST DUP2 EQ PUSH2 0x630 JUMPI PUSH0 PUSH0 REVERT JUMPDEST POP JUMP JUMPDEST PUSH0 DUP2 CALLDATALOAD SWAP1 POP PUSH2 0x641 DUP2 PUSH2 0x61D JUMP JUMPDEST SWAP3 SWAP2 POP POP JUMP JUMPDEST PUSH0 PUSH0 PUSH1 0x40 DUP4 DUP6 SUB SLT ISZERO PUSH2 0x65D JUMPI PUSH2 0x65C PUSH2 0x610 JUMP JUMPDEST JUMPDEST PUSH0 PUSH2 0x66A DUP6 DUP3 DUP7 ADD PUSH2 0x633 JUMP JUMPDEST SWAP3 POP POP PUSH1 0x20 PUSH2 0x67B DUP6 DUP3 DUP7 ADD PUSH2 0x633 JUMP JUMPDEST SWAP2 POP POP SWAP3 POP SWAP3 SWAP1 POP JUMP JUMPDEST PUSH0 PUSH1 0x20 DUP3 DUP5 SUB SLT ISZERO PUSH2 0x69A JUMPI PUSH2 0x699 PUSH2 0x610 JUMP JUMPDEST JUMPDEST PUSH0 PUSH2 0x6A7 DUP5 DUP3 DUP6 ADD PUSH2 0x633 JUMP JUMPDEST SWAP2 POP POP SWAP3 SWAP2 POP POP JUMP JUMPDEST PUSH2 0x6B9 DUP2 PUSH2 0x614 JUMP JUMPDEST DUP3 MSTORE POP POP JUMP JUMPDEST PUSH0 PUSH1 0x20 DUP3 ADD SWAP1 POP PUSH2 0x6D2 PUSH0 DUP4 ADD DUP5 PUSH2 0x6B0 JUMP JUMPDEST SWAP3 SWAP2 POP POP JUMP JUMPDEST PUSH0 DUP2 MLOAD SWAP1 POP SWAP2 SWAP1 POP JUMP JUMPDEST PUSH0 DUP2 SWAP1 POP SWAP3 SWAP2 POP POP JUMP JUMPDEST DUP3 DUP2 DUP4 MCOPY PUSH0 DUP4 DUP4 ADD MSTORE POP POP POP JUMP JUMPDEST PUSH0 PUSH2 0x704 DUP3 PUSH2 0x6D8 JUMP JUMPDEST PUSH2 0x70E DUP2 DUP6 PUSH2 0x6E2 JUMP JUMPDEST SWAP4 POP PUSH2 0x71E DUP2 DUP6 PUSH1 0x20 DUP7 ADD PUSH2 0x6EC JUMP JUMPDEST DUP1 DUP5 ADD SWAP2 POP POP SWAP3 SWAP2 POP POP JUMP JUMPDEST PUSH0 PUSH2 0x735 DUP3 DUP5 PUSH2 0x6FA JUMP JUMPDEST SWAP2 POP DUP2 SWAP1 POP SWAP3 SWAP2 POP POP JUMP JUMPDEST PUSH0 DUP2 SWAP1 POP SWAP2 SWAP1 POP JUMP JUMPDEST PUSH2 0x752 DUP2 PUSH2 0x740 JUMP JUMPDEST DUP2 EQ PUSH2 0x75C JUMPI PUSH0 PUSH0 REVERT JUMPDEST POP JUMP JUMPDEST PUSH0 DUP2 MLOAD SWAP1 POP PUSH2 0x76D DUP2 PUSH2 0x749 JUMP JUMPDEST SWAP3 SWAP2 POP POP JUMP JUMPDEST PUSH0 PUSH1 0x20 DUP3 DUP5 SUB SLT ISZERO PUSH2 0x788 JUMPI PUSH2 0x787 PUSH2 0x610 JUMP JUMPDEST JUMPDEST PUSH0 PUSH2 0x795 DUP5 DUP3 DUP6 ADD PUSH2 0x75F JUMP JUMPDEST SWAP2 POP POP SWAP3 SWAP2 POP POP JUMP JUMPDEST PUSH32 0x4E487B7100000000000000000000000000000000000000000000000000000000 PUSH0 MSTORE PUSH1 0x11 PUSH1 0x4 MSTORE PUSH1 0x24 PUSH0 REVERT JUMPDEST PUSH0 PUSH2 0x7D5 DUP3 PUSH2 0x614 JUMP JUMPDEST SWAP2 POP PUSH2 0x7E0 DUP4 PUSH2 0x614 JUMP JUMPDEST SWAP3 POP DUP3 DUP3 SUB SWAP1 POP DUP2 DUP2 GT ISZERO PUSH2 0x7F8 JUMPI PUSH2 0x7F7 PUSH2 0x79E JUMP JUMPDEST JUMPDEST SWAP3 SWAP2 POP POP JUMP JUMPDEST PUSH0 PUSH2 0x808 DUP3 PUSH2 0x614 JUMP JUMPDEST SWAP2 POP PUSH2 0x813 DUP4 PUSH2 0x614 JUMP JUMPDEST SWAP3 POP DUP3 DUP3 ADD SWAP1 POP DUP1 DUP3 GT ISZERO PUSH2 0x82B JUMPI PUSH2 0x82A PUSH2 0x79E JUMP JUMPDEST JUMPDEST SWAP3 SWAP2 POP POP JUMP INVALID LOG2 PUSH5 0x6970667358 0x22 SLT KECCAK256 0xAD 0xC9 0xEA SAR ISZERO 0xB2 BLOCKHASH DUP15 NUMBER 0x22 0xBC 0x1E 0xEB DELEGATECALL STOP 0xAE DUP5 0xA9 PUSH26 0x5B8004C976995B6FBC4F47541C64736F6C634300081E00330000 "
				},
				"gasEstimates": {
					"creation": {
						"codeDepositCost": "430200",
						"executionCost": "466",
						"totalCost": "430666"
					},
					"external": {
						"deposit(uint256)": "infinite",
						"getBlance(uint256)": "infinite",
						"hash(uint256)": "infinite",
						"withdraw(uint256,uint256)": "infinite"
					}
				},
				"methodIdentifiers": {
					"deposit(uint256)": "b6b55f25",
					"getBlance(uint256)": "632a47aa",
					"hash(uint256)": "b189fd4c",
					"withdraw(uint256,uint256)": "441a3e70"
				}
			},
			"storageLayout": {
				"storage": [
					{
						"astId": 13,
						"contract": "contracts/hw/ex7.sol:Example03",
						"label": "vaults",
						"offset": 0,
						"slot": "0",
						"type": "t_mapping(t_address,t_struct(vault)8_storage)"
					}
				],
				"types": {
					"t_address": {
						"encoding": "inplace",
						"label": "address",
						"numberOfBytes": "20"
					},
					"t_bool": {
						"encoding": "inplace",
						"label": "bool",
						"numberOfBytes": "1"
					},
					"t_mapping(t_address,t_struct(vault)8_storage)": {
						"encoding": "mapping",
						"key": "t_address",
						"label": "mapping(address => struct Example03.vault)",
						"numberOfBytes": "32",
						"value": "t_struct(vault)8_storage"
					},
					"t_struct(vault)8_storage": {
						"encoding": "inplace",
						"label": "struct Example03.vault",
						"members": [
							{
								"astId": 3,
								"contract": "contracts/hw/ex7.sol:Example03",
								"label": "balance",
								"offset": 0,
								"slot": "0",
								"type": "t_uint256"
							},
							{
								"astId": 5,
								"contract": "contracts/hw/ex7.sol:Example03",
								"label": "passwordHash",
								"offset": 0,
								"slot": "1",
								"type": "t_uint256"
							},
							{
								"astId": 7,
								"contract": "contracts/hw/ex7.sol:Example03",
								"label": "exists",
								"offset": 0,
								"slot": "2",
								"type": "t_bool"
							}
						],
						"numberOfBytes": "96"
					},
					"t_uint256": {
						"encoding": "inplace",
						"label": "uint256",
						"numberOfBytes": "32"
					}
				}
			},
			"userdoc": {
				"kind": "user",
				"methods": {},
				"version": 1
			}
		}
	}
}