{
	"contracts/hw/ex8.sol": {
		"Example04": {
			"abi": [
				{
					"inputs": [
						{
							"internalType": "uint256",
							"name": "password",
							"type": "uint256"
						}
					],
					"name": "deposit",
					"outputs": [],
					"stateMutability": "payable",
					"type": "function"
				},
				{
					"inputs": [
						{
							"internalType": "address",
							"name": "addr",
							"type": "address"
						}
					],
					"name": "getBalance",
					"outputs": [
						{
							"internalType": "uint256",
							"name": "",
							"type": "uint256"
						}
					],
					"stateMutability": "view",
					"type": "function"
				},
				{
					"inputs": [
						{
							"internalType": "uint256",
							"name": "password",
							"type": "uint256"
						},
						{
							"internalType": "address",
							"name": "to",
							"type": "address"
						},
						{
							"internalType": "uint256",
							"name": "amount",
							"type": "uint256"
						}
					],
					"name": "transfer",
					"outputs": [],
					"stateMutability": "nonpayable",
					"type": "function"
				},
				{
					"inputs": [
						{
							"internalType": "uint256",
							"name": "password",
							"type": "uint256"
						}
					],
					"name": "withdrawal",
					"outputs": [],
					"stateMutability": "nonpayable",
					"type": "function"
				}
			],
			"devdoc": {
				"kind": "dev",
				"methods": {},
				"version": 1
			},
			"evm": {
				"assembly": "    /* \"contracts/hw/ex8.sol\":66:2267  contract Example04 {... */\n  mstore(0x40, 0x80)\n  callvalue\n  dup1\n  iszero\n  tag_1\n  jumpi\n  revert(0x00, 0x00)\ntag_1:\n  pop\n  dataSize(sub_0)\n  dup1\n  dataOffset(sub_0)\n  0x00\n  codecopy\n  0x00\n  return\nstop\n\nsub_0: assembly {\n        /* \"contracts/hw/ex8.sol\":66:2267  contract Example04 {... */\n      mstore(0x40, 0x80)\n      jumpi(tag_1, lt(calldatasize, 0x04))\n      shr(0xe0, calldataload(0x00))\n      dup1\n      0x835fc6ca\n      eq\n      tag_2\n      jumpi\n      dup1\n      0xb6b55f25\n      eq\n      tag_3\n      jumpi\n      dup1\n      0xf8548e36\n      eq\n      tag_4\n      jumpi\n      dup1\n      0xf8b2cb4f\n      eq\n      tag_5\n      jumpi\n    tag_1:\n      revert(0x00, 0x00)\n        /* \"contracts/hw/ex8.sol\":656:1039  function withdrawal(uint256 password) public {... */\n    tag_2:\n      callvalue\n      dup1\n      iszero\n      tag_6\n      jumpi\n      revert(0x00, 0x00)\n    tag_6:\n      pop\n      tag_7\n      0x04\n      dup1\n      calldatasize\n      sub\n      dup2\n      add\n      swap1\n      tag_8\n      swap2\n      swap1\n      tag_9\n      jump\t// in\n    tag_8:\n      tag_10\n      jump\t// in\n    tag_7:\n      stop\n        /* \"contracts/hw/ex8.sol\":228:648  function deposit(uint256 password) public payable {... */\n    tag_3:\n      tag_11\n      0x04\n      dup1\n      calldatasize\n      sub\n      dup2\n      add\n      swap1\n      tag_12\n      swap2\n      swap1\n      tag_9\n      jump\t// in\n    tag_12:\n      tag_13\n      jump\t// in\n    tag_11:\n      stop\n        /* \"contracts/hw/ex8.sol\":1047:1576  function transfer(uint256 password, address to, uint256 amount) public {... */\n    tag_4:\n      callvalue\n      dup1\n      iszero\n      tag_14\n      jumpi\n      revert(0x00, 0x00)\n    tag_14:\n      pop\n      tag_15\n      0x04\n      dup1\n      calldatasize\n      sub\n      dup2\n      add\n      swap1\n      tag_16\n      swap2\n      swap1\n      tag_17\n      jump\t// in\n    tag_16:\n      tag_18\n      jump\t// in\n    tag_15:\n      stop\n        /* \"contracts/hw/ex8.sol\":1584:1834  function getBalance(address addr) public view returns (uint256) {... */\n    tag_5:\n      callvalue\n      dup1\n      iszero\n      tag_19\n      jumpi\n      revert(0x00, 0x00)\n    tag_19:\n      pop\n      tag_20\n      0x04\n      dup1\n      calldatasize\n      sub\n      dup2\n      add\n      swap1\n      tag_21\n      swap2\n      swap1\n      tag_22\n      jump\t// in\n    tag_21:\n      tag_23\n      jump\t// in\n    tag_20:\n      mload(0x40)\n      tag_24\n      swap2\n      swap1\n      tag_25\n      jump\t// in\n    tag_24:\n      mload(0x40)\n      dup1\n      swap2\n      sub\n      swap1\n      return\n        /* \"contracts/hw/ex8.sol\":656:1039  function withdrawal(uint256 password) public {... */\n    tag_10:\n        /* \"contracts/hw/ex8.sol\":713:726  uint256 index */\n      0x00\n        /* \"contracts/hw/ex8.sol\":728:738  bool found */\n      0x00\n        /* \"contracts/hw/ex8.sol\":742:769  getAccountIndex(msg.sender) */\n      tag_27\n        /* \"contracts/hw/ex8.sol\":758:768  msg.sender */\n      caller\n        /* \"contracts/hw/ex8.sol\":742:757  getAccountIndex */\n      tag_28\n        /* \"contracts/hw/ex8.sol\":742:769  getAccountIndex(msg.sender) */\n      jump\t// in\n    tag_27:\n        /* \"contracts/hw/ex8.sol\":712:769  (uint256 index, bool found) = getAccountIndex(msg.sender) */\n      swap2\n      pop\n      swap2\n      pop\n        /* \"contracts/hw/ex8.sol\":780:800  uint256 passwordHash */\n      0x00\n        /* \"contracts/hw/ex8.sol\":803:817  hash(password) */\n      tag_29\n        /* \"contracts/hw/ex8.sol\":808:816  password */\n      dup5\n        /* \"contracts/hw/ex8.sol\":803:807  hash */\n      tag_30\n        /* \"contracts/hw/ex8.sol\":803:817  hash(password) */\n      jump\t// in\n    tag_29:\n        /* \"contracts/hw/ex8.sol\":780:817  uint256 passwordHash = hash(password) */\n      swap1\n      pop\n        /* \"contracts/hw/ex8.sol\":834:839  found */\n      dup2\n        /* \"contracts/hw/ex8.sol\":834:885  found && passwordHash == record[index].passwordHash */\n      dup1\n      iszero\n      tag_31\n      jumpi\n      pop\n        /* \"contracts/hw/ex8.sol\":859:865  record */\n      0x00\n        /* \"contracts/hw/ex8.sol\":866:871  index */\n      dup4\n        /* \"contracts/hw/ex8.sol\":859:872  record[index] */\n      dup2\n      sload\n      dup2\n      lt\n      tag_32\n      jumpi\n      tag_33\n      tag_34\n      jump\t// in\n    tag_33:\n    tag_32:\n      swap1\n      0x00\n      mstore\n      keccak256(0x00, 0x20)\n      swap1\n      0x03\n      mul\n      add\n        /* \"contracts/hw/ex8.sol\":859:885  record[index].passwordHash */\n      0x01\n      add\n      sload\n        /* \"contracts/hw/ex8.sol\":843:855  passwordHash */\n      dup2\n        /* \"contracts/hw/ex8.sol\":843:885  passwordHash == record[index].passwordHash */\n      eq\n        /* \"contracts/hw/ex8.sol\":834:885  found && passwordHash == record[index].passwordHash */\n    tag_31:\n        /* \"contracts/hw/ex8.sol\":834:914  found && passwordHash == record[index].passwordHash && record[index].amount != 0 */\n      dup1\n      iszero\n      tag_36\n      jumpi\n      pop\n        /* \"contracts/hw/ex8.sol\":913:914  0 */\n      0x00\n        /* \"contracts/hw/ex8.sol\":889:895  record */\n      0x00\n        /* \"contracts/hw/ex8.sol\":896:901  index */\n      dup5\n        /* \"contracts/hw/ex8.sol\":889:902  record[index] */\n      dup2\n      sload\n      dup2\n      lt\n      tag_37\n      jumpi\n      tag_38\n      tag_34\n      jump\t// in\n    tag_38:\n    tag_37:\n      swap1\n      0x00\n      mstore\n      keccak256(0x00, 0x20)\n      swap1\n      0x03\n      mul\n      add\n        /* \"contracts/hw/ex8.sol\":889:909  record[index].amount */\n      0x02\n      add\n      sload\n        /* \"contracts/hw/ex8.sol\":889:914  record[index].amount != 0 */\n      eq\n      iszero\n        /* \"contracts/hw/ex8.sol\":834:914  found && passwordHash == record[index].passwordHash && record[index].amount != 0 */\n    tag_36:\n        /* \"contracts/hw/ex8.sol\":830:1032  if (found && passwordHash == record[index].passwordHash && record[index].amount != 0) {... */\n      iszero\n      tag_40\n      jumpi\n        /* \"contracts/hw/ex8.sol\":939:949  msg.sender */\n      caller\n        /* \"contracts/hw/ex8.sol\":931:959  payable(msg.sender).transfer */\n      0xffffffffffffffffffffffffffffffffffffffff\n      and\n        /* \"contracts/hw/ex8.sol\":931:981  payable(msg.sender).transfer(record[index].amount) */\n      0x08fc\n        /* \"contracts/hw/ex8.sol\":960:966  record */\n      0x00\n        /* \"contracts/hw/ex8.sol\":967:972  index */\n      dup6\n        /* \"contracts/hw/ex8.sol\":960:973  record[index] */\n      dup2\n      sload\n      dup2\n      lt\n      tag_41\n      jumpi\n      tag_42\n      tag_34\n      jump\t// in\n    tag_42:\n    tag_41:\n      swap1\n      0x00\n      mstore\n      keccak256(0x00, 0x20)\n      swap1\n      0x03\n      mul\n      add\n        /* \"contracts/hw/ex8.sol\":960:980  record[index].amount */\n      0x02\n      add\n      sload\n        /* \"contracts/hw/ex8.sol\":931:981  payable(msg.sender).transfer(record[index].amount) */\n      swap1\n      dup2\n      iszero\n      mul\n      swap1\n      mload(0x40)\n      0x00\n      mload(0x40)\n      dup1\n      dup4\n      sub\n      dup2\n      dup6\n      dup9\n      dup9\n      call\n      swap4\n      pop\n      pop\n      pop\n      pop\n      iszero\n      dup1\n      iszero\n      tag_45\n      jumpi\n      returndatacopy(0x00, 0x00, returndatasize)\n      revert(0x00, returndatasize)\n    tag_45:\n      pop\n        /* \"contracts/hw/ex8.sol\":1019:1020  0 */\n      0x00\n        /* \"contracts/hw/ex8.sol\":996:1002  record */\n      0x00\n        /* \"contracts/hw/ex8.sol\":1003:1008  index */\n      dup5\n        /* \"contracts/hw/ex8.sol\":996:1009  record[index] */\n      dup2\n      sload\n      dup2\n      lt\n      tag_46\n      jumpi\n      tag_47\n      tag_34\n      jump\t// in\n    tag_47:\n    tag_46:\n      swap1\n      0x00\n      mstore\n      keccak256(0x00, 0x20)\n      swap1\n      0x03\n      mul\n      add\n        /* \"contracts/hw/ex8.sol\":996:1016  record[index].amount */\n      0x02\n      add\n        /* \"contracts/hw/ex8.sol\":996:1020  record[index].amount = 0 */\n      dup2\n      swap1\n      sstore\n      pop\n        /* \"contracts/hw/ex8.sol\":830:1032  if (found && passwordHash == record[index].passwordHash && record[index].amount != 0) {... */\n    tag_40:\n        /* \"contracts/hw/ex8.sol\":701:1039  {... */\n      pop\n      pop\n      pop\n        /* \"contracts/hw/ex8.sol\":656:1039  function withdrawal(uint256 password) public {... */\n      pop\n      jump\t// out\n        /* \"contracts/hw/ex8.sol\":228:648  function deposit(uint256 password) public payable {... */\n    tag_13:\n        /* \"contracts/hw/ex8.sol\":290:303  uint256 index */\n      0x00\n        /* \"contracts/hw/ex8.sol\":305:315  bool found */\n      0x00\n        /* \"contracts/hw/ex8.sol\":319:346  getAccountIndex(msg.sender) */\n      tag_50\n        /* \"contracts/hw/ex8.sol\":335:345  msg.sender */\n      caller\n        /* \"contracts/hw/ex8.sol\":319:334  getAccountIndex */\n      tag_28\n        /* \"contracts/hw/ex8.sol\":319:346  getAccountIndex(msg.sender) */\n      jump\t// in\n    tag_50:\n        /* \"contracts/hw/ex8.sol\":289:346  (uint256 index, bool found) = getAccountIndex(msg.sender) */\n      swap2\n      pop\n      swap2\n      pop\n        /* \"contracts/hw/ex8.sol\":357:377  uint256 passwordHash */\n      0x00\n        /* \"contracts/hw/ex8.sol\":380:394  hash(password) */\n      tag_51\n        /* \"contracts/hw/ex8.sol\":385:393  password */\n      dup5\n        /* \"contracts/hw/ex8.sol\":380:384  hash */\n      tag_30\n        /* \"contracts/hw/ex8.sol\":380:394  hash(password) */\n      jump\t// in\n    tag_51:\n        /* \"contracts/hw/ex8.sol\":357:394  uint256 passwordHash = hash(password) */\n      swap1\n      pop\n        /* \"contracts/hw/ex8.sol\":409:414  found */\n      dup2\n        /* \"contracts/hw/ex8.sol\":405:641  if (found) {... */\n      iszero\n      tag_52\n      jumpi\n        /* \"contracts/hw/ex8.sol\":446:452  record */\n      0x00\n        /* \"contracts/hw/ex8.sol\":453:458  index */\n      dup4\n        /* \"contracts/hw/ex8.sol\":446:459  record[index] */\n      dup2\n      sload\n      dup2\n      lt\n      tag_53\n      jumpi\n      tag_54\n      tag_34\n      jump\t// in\n    tag_54:\n    tag_53:\n      swap1\n      0x00\n      mstore\n      keccak256(0x00, 0x20)\n      swap1\n      0x03\n      mul\n      add\n        /* \"contracts/hw/ex8.sol\":446:472  record[index].passwordHash */\n      0x01\n      add\n      sload\n        /* \"contracts/hw/ex8.sol\":434:442  password */\n      dup5\n        /* \"contracts/hw/ex8.sol\":434:472  password == record[index].passwordHash */\n      sub\n        /* \"contracts/hw/ex8.sol\":431:541  if(password == record[index].passwordHash){... */\n      tag_56\n      jumpi\n        /* \"contracts/hw/ex8.sol\":516:525  msg.value */\n      callvalue\n        /* \"contracts/hw/ex8.sol\":492:498  record */\n      0x00\n        /* \"contracts/hw/ex8.sol\":499:504  index */\n      dup5\n        /* \"contracts/hw/ex8.sol\":492:505  record[index] */\n      dup2\n      sload\n      dup2\n      lt\n      tag_57\n      jumpi\n      tag_58\n      tag_34\n      jump\t// in\n    tag_58:\n    tag_57:\n      swap1\n      0x00\n      mstore\n      keccak256(0x00, 0x20)\n      swap1\n      0x03\n      mul\n      add\n        /* \"contracts/hw/ex8.sol\":492:512  record[index].amount */\n      0x02\n      add\n      0x00\n        /* \"contracts/hw/ex8.sol\":492:525  record[index].amount += msg.value */\n      dup3\n      dup3\n      sload\n      tag_60\n      swap2\n      swap1\n      tag_61\n      jump\t// in\n    tag_60:\n      swap3\n      pop\n      pop\n      dup2\n      swap1\n      sstore\n      pop\n        /* \"contracts/hw/ex8.sol\":431:541  if(password == record[index].passwordHash){... */\n    tag_56:\n        /* \"contracts/hw/ex8.sol\":405:641  if (found) {... */\n      jump(tag_62)\n    tag_52:\n        /* \"contracts/hw/ex8.sol\":573:579  record */\n      0x00\n        /* \"contracts/hw/ex8.sol\":585:628  Wallet(msg.sender, passwordHash, msg.value) */\n      mload(0x40)\n      dup1\n      0x60\n      add\n      0x40\n      mstore\n      dup1\n        /* \"contracts/hw/ex8.sol\":592:602  msg.sender */\n      caller\n        /* \"contracts/hw/ex8.sol\":585:628  Wallet(msg.sender, passwordHash, msg.value) */\n      0xffffffffffffffffffffffffffffffffffffffff\n      and\n      dup2\n      mstore\n      0x20\n      add\n        /* \"contracts/hw/ex8.sol\":604:616  passwordHash */\n      dup4\n        /* \"contracts/hw/ex8.sol\":585:628  Wallet(msg.sender, passwordHash, msg.value) */\n      dup2\n      mstore\n      0x20\n      add\n        /* \"contracts/hw/ex8.sol\":618:627  msg.value */\n      callvalue\n        /* \"contracts/hw/ex8.sol\":585:628  Wallet(msg.sender, passwordHash, msg.value) */\n      dup2\n      mstore\n      pop\n        /* \"contracts/hw/ex8.sol\":573:629  record.push(Wallet(msg.sender, passwordHash, msg.value)) */\n      swap1\n      dup1\n      0x01\n      dup2\n      sload\n      add\n      dup1\n      dup3\n      sstore\n      dup1\n      swap2\n      pop\n      pop\n      0x01\n      swap1\n      sub\n      swap1\n      0x00\n      mstore\n      keccak256(0x00, 0x20)\n      swap1\n      0x03\n      mul\n      add\n      0x00\n      swap1\n      swap2\n      swap1\n      swap2\n      swap1\n      swap2\n      pop\n      0x00\n      dup3\n      add\n      mload\n      dup2\n      0x00\n      add\n      exp(0x0100, 0x00)\n      dup2\n      sload\n      dup2\n      0xffffffffffffffffffffffffffffffffffffffff\n      mul\n      not\n      and\n      swap1\n      dup4\n      0xffffffffffffffffffffffffffffffffffffffff\n      and\n      mul\n      or\n      swap1\n      sstore\n      pop\n      0x20\n      dup3\n      add\n      mload\n      dup2\n      0x01\n      add\n      sstore\n      0x40\n      dup3\n      add\n      mload\n      dup2\n      0x02\n      add\n      sstore\n      pop\n      pop\n        /* \"contracts/hw/ex8.sol\":405:641  if (found) {... */\n    tag_62:\n        /* \"contracts/hw/ex8.sol\":278:648  {... */\n      pop\n      pop\n      pop\n        /* \"contracts/hw/ex8.sol\":228:648  function deposit(uint256 password) public payable {... */\n      pop\n      jump\t// out\n        /* \"contracts/hw/ex8.sol\":1047:1576  function transfer(uint256 password, address to, uint256 amount) public {... */\n    tag_18:\n        /* \"contracts/hw/ex8.sol\":1130:1143  uint256 index */\n      0x00\n        /* \"contracts/hw/ex8.sol\":1145:1155  bool found */\n      0x00\n        /* \"contracts/hw/ex8.sol\":1159:1186  getAccountIndex(msg.sender) */\n      tag_65\n        /* \"contracts/hw/ex8.sol\":1175:1185  msg.sender */\n      caller\n        /* \"contracts/hw/ex8.sol\":1159:1174  getAccountIndex */\n      tag_28\n        /* \"contracts/hw/ex8.sol\":1159:1186  getAccountIndex(msg.sender) */\n      jump\t// in\n    tag_65:\n        /* \"contracts/hw/ex8.sol\":1129:1186  (uint256 index, bool found) = getAccountIndex(msg.sender) */\n      swap2\n      pop\n      swap2\n      pop\n        /* \"contracts/hw/ex8.sol\":1197:1217  uint256 passwordHash */\n      0x00\n        /* \"contracts/hw/ex8.sol\":1220:1234  hash(password) */\n      tag_66\n        /* \"contracts/hw/ex8.sol\":1225:1233  password */\n      dup7\n        /* \"contracts/hw/ex8.sol\":1220:1224  hash */\n      tag_30\n        /* \"contracts/hw/ex8.sol\":1220:1234  hash(password) */\n      jump\t// in\n    tag_66:\n        /* \"contracts/hw/ex8.sol\":1197:1234  uint256 passwordHash = hash(password) */\n      swap1\n      pop\n        /* \"contracts/hw/ex8.sol\":1249:1254  found */\n      dup2\n        /* \"contracts/hw/ex8.sol\":1249:1300  found && passwordHash == record[index].passwordHash */\n      dup1\n      iszero\n      tag_67\n      jumpi\n      pop\n        /* \"contracts/hw/ex8.sol\":1274:1280  record */\n      0x00\n        /* \"contracts/hw/ex8.sol\":1281:1286  index */\n      dup4\n        /* \"contracts/hw/ex8.sol\":1274:1287  record[index] */\n      dup2\n      sload\n      dup2\n      lt\n      tag_68\n      jumpi\n      tag_69\n      tag_34\n      jump\t// in\n    tag_69:\n    tag_68:\n      swap1\n      0x00\n      mstore\n      keccak256(0x00, 0x20)\n      swap1\n      0x03\n      mul\n      add\n        /* \"contracts/hw/ex8.sol\":1274:1300  record[index].passwordHash */\n      0x01\n      add\n      sload\n        /* \"contracts/hw/ex8.sol\":1258:1270  passwordHash */\n      dup2\n        /* \"contracts/hw/ex8.sol\":1258:1300  passwordHash == record[index].passwordHash */\n      eq\n        /* \"contracts/hw/ex8.sol\":1249:1300  found && passwordHash == record[index].passwordHash */\n    tag_67:\n        /* \"contracts/hw/ex8.sol\":1249:1334  found && passwordHash == record[index].passwordHash && record[index].amount >= amount */\n      dup1\n      iszero\n      tag_71\n      jumpi\n      pop\n        /* \"contracts/hw/ex8.sol\":1328:1334  amount */\n      dup4\n        /* \"contracts/hw/ex8.sol\":1304:1310  record */\n      0x00\n        /* \"contracts/hw/ex8.sol\":1311:1316  index */\n      dup5\n        /* \"contracts/hw/ex8.sol\":1304:1317  record[index] */\n      dup2\n      sload\n      dup2\n      lt\n      tag_72\n      jumpi\n      tag_73\n      tag_34\n      jump\t// in\n    tag_73:\n    tag_72:\n      swap1\n      0x00\n      mstore\n      keccak256(0x00, 0x20)\n      swap1\n      0x03\n      mul\n      add\n        /* \"contracts/hw/ex8.sol\":1304:1324  record[index].amount */\n      0x02\n      add\n      sload\n        /* \"contracts/hw/ex8.sol\":1304:1334  record[index].amount >= amount */\n      lt\n      iszero\n        /* \"contracts/hw/ex8.sol\":1249:1334  found && passwordHash == record[index].passwordHash && record[index].amount >= amount */\n    tag_71:\n        /* \"contracts/hw/ex8.sol\":1245:1569  if (found && passwordHash == record[index].passwordHash && record[index].amount >= amount) {... */\n      iszero\n      tag_75\n      jumpi\n        /* \"contracts/hw/ex8.sol\":1375:1381  amount */\n      dup4\n        /* \"contracts/hw/ex8.sol\":1351:1357  record */\n      0x00\n        /* \"contracts/hw/ex8.sol\":1358:1363  index */\n      dup5\n        /* \"contracts/hw/ex8.sol\":1351:1364  record[index] */\n      dup2\n      sload\n      dup2\n      lt\n      tag_76\n      jumpi\n      tag_77\n      tag_34\n      jump\t// in\n    tag_77:\n    tag_76:\n      swap1\n      0x00\n      mstore\n      keccak256(0x00, 0x20)\n      swap1\n      0x03\n      mul\n      add\n        /* \"contracts/hw/ex8.sol\":1351:1371  record[index].amount */\n      0x02\n      add\n      0x00\n        /* \"contracts/hw/ex8.sol\":1351:1381  record[index].amount -= amount */\n      dup3\n      dup3\n      sload\n      tag_79\n      swap2\n      swap1\n      tag_80\n      jump\t// in\n    tag_79:\n      swap3\n      pop\n      pop\n      dup2\n      swap1\n      sstore\n      pop\n        /* \"contracts/hw/ex8.sol\":1413:1432  getAccountIndex(to) */\n      tag_81\n        /* \"contracts/hw/ex8.sol\":1429:1431  to */\n      dup6\n        /* \"contracts/hw/ex8.sol\":1413:1428  getAccountIndex */\n      tag_28\n        /* \"contracts/hw/ex8.sol\":1413:1432  getAccountIndex(to) */\n      jump\t// in\n    tag_81:\n        /* \"contracts/hw/ex8.sol\":1396:1432  (index, found) = getAccountIndex(to) */\n      dup1\n      swap4\n      pop\n      dup2\n      swap5\n      pop\n      pop\n      pop\n        /* \"contracts/hw/ex8.sol\":1451:1456  found */\n      dup2\n        /* \"contracts/hw/ex8.sol\":1447:1523  if (found) {... */\n      iszero\n      tag_82\n      jumpi\n        /* \"contracts/hw/ex8.sol\":1501:1507  amount */\n      dup4\n        /* \"contracts/hw/ex8.sol\":1477:1483  record */\n      0x00\n        /* \"contracts/hw/ex8.sol\":1484:1489  index */\n      dup5\n        /* \"contracts/hw/ex8.sol\":1477:1490  record[index] */\n      dup2\n      sload\n      dup2\n      lt\n      tag_83\n      jumpi\n      tag_84\n      tag_34\n      jump\t// in\n    tag_84:\n    tag_83:\n      swap1\n      0x00\n      mstore\n      keccak256(0x00, 0x20)\n      swap1\n      0x03\n      mul\n      add\n        /* \"contracts/hw/ex8.sol\":1477:1497  record[index].amount */\n      0x02\n      add\n      0x00\n        /* \"contracts/hw/ex8.sol\":1477:1507  record[index].amount += amount */\n      dup3\n      dup3\n      sload\n      tag_86\n      swap2\n      swap1\n      tag_61\n      jump\t// in\n    tag_86:\n      swap3\n      pop\n      pop\n      dup2\n      swap1\n      sstore\n      pop\n        /* \"contracts/hw/ex8.sol\":1447:1523  if (found) {... */\n    tag_82:\n        /* \"contracts/hw/ex8.sol\":1245:1569  if (found && passwordHash == record[index].passwordHash && record[index].amount >= amount) {... */\n    tag_75:\n        /* \"contracts/hw/ex8.sol\":1118:1576  {... */\n      pop\n      pop\n      pop\n        /* \"contracts/hw/ex8.sol\":1047:1576  function transfer(uint256 password, address to, uint256 amount) public {... */\n      pop\n      pop\n      pop\n      jump\t// out\n        /* \"contracts/hw/ex8.sol\":1584:1834  function getBalance(address addr) public view returns (uint256) {... */\n    tag_23:\n        /* \"contracts/hw/ex8.sol\":1639:1646  uint256 */\n      0x00\n        /* \"contracts/hw/ex8.sol\":1660:1673  uint256 index */\n      0x00\n        /* \"contracts/hw/ex8.sol\":1675:1685  bool found */\n      0x00\n        /* \"contracts/hw/ex8.sol\":1689:1710  getAccountIndex(addr) */\n      tag_88\n        /* \"contracts/hw/ex8.sol\":1705:1709  addr */\n      dup5\n        /* \"contracts/hw/ex8.sol\":1689:1704  getAccountIndex */\n      tag_28\n        /* \"contracts/hw/ex8.sol\":1689:1710  getAccountIndex(addr) */\n      jump\t// in\n    tag_88:\n        /* \"contracts/hw/ex8.sol\":1659:1710  (uint256 index, bool found) = getAccountIndex(addr) */\n      swap2\n      pop\n      swap2\n      pop\n        /* \"contracts/hw/ex8.sol\":1725:1730  found */\n      dup1\n        /* \"contracts/hw/ex8.sol\":1721:1827  if (found) {... */\n      iszero\n      tag_89\n      jumpi\n        /* \"contracts/hw/ex8.sol\":1754:1760  record */\n      0x00\n        /* \"contracts/hw/ex8.sol\":1761:1766  index */\n      dup3\n        /* \"contracts/hw/ex8.sol\":1754:1767  record[index] */\n      dup2\n      sload\n      dup2\n      lt\n      tag_90\n      jumpi\n      tag_91\n      tag_34\n      jump\t// in\n    tag_91:\n    tag_90:\n      swap1\n      0x00\n      mstore\n      keccak256(0x00, 0x20)\n      swap1\n      0x03\n      mul\n      add\n        /* \"contracts/hw/ex8.sol\":1754:1774  record[index].amount */\n      0x02\n      add\n      sload\n        /* \"contracts/hw/ex8.sol\":1747:1774  return record[index].amount */\n      swap3\n      pop\n      pop\n      pop\n      jump(tag_87)\n        /* \"contracts/hw/ex8.sol\":1721:1827  if (found) {... */\n    tag_89:\n        /* \"contracts/hw/ex8.sol\":1814:1815  0 */\n      0x00\n        /* \"contracts/hw/ex8.sol\":1807:1815  return 0 */\n      swap3\n      pop\n      pop\n      pop\n        /* \"contracts/hw/ex8.sol\":1584:1834  function getBalance(address addr) public view returns (uint256) {... */\n    tag_87:\n      swap2\n      swap1\n      pop\n      jump\t// out\n        /* \"contracts/hw/ex8.sol\":1842:2132  function getAccountIndex(... */\n    tag_28:\n        /* \"contracts/hw/ex8.sol\":1919:1926  uint256 */\n      0x00\n        /* \"contracts/hw/ex8.sol\":1928:1932  bool */\n      0x00\n        /* \"contracts/hw/ex8.sol\":1950:1959  uint256 i */\n      0x00\n        /* \"contracts/hw/ex8.sol\":1962:1963  0 */\n      0x00\n        /* \"contracts/hw/ex8.sol\":1950:1963  uint256 i = 0 */\n      swap1\n      pop\n        /* \"contracts/hw/ex8.sol\":1945:2097  for (uint256 i = 0; i < record.length; ++i) {... */\n    tag_95:\n        /* \"contracts/hw/ex8.sol\":1969:1975  record */\n      0x00\n        /* \"contracts/hw/ex8.sol\":1969:1982  record.length */\n      dup1\n      sload\n      swap1\n      pop\n        /* \"contracts/hw/ex8.sol\":1965:1966  i */\n      dup2\n        /* \"contracts/hw/ex8.sol\":1965:1982  i < record.length */\n      lt\n        /* \"contracts/hw/ex8.sol\":1945:2097  for (uint256 i = 0; i < record.length; ++i) {... */\n      iszero\n      tag_96\n      jumpi\n        /* \"contracts/hw/ex8.sol\":2029:2033  addr */\n      dup4\n        /* \"contracts/hw/ex8.sol\":2008:2033  record[i].account == addr */\n      0xffffffffffffffffffffffffffffffffffffffff\n      and\n        /* \"contracts/hw/ex8.sol\":2008:2014  record */\n      0x00\n        /* \"contracts/hw/ex8.sol\":2015:2016  i */\n      dup3\n        /* \"contracts/hw/ex8.sol\":2008:2017  record[i] */\n      dup2\n      sload\n      dup2\n      lt\n      tag_98\n      jumpi\n      tag_99\n      tag_34\n      jump\t// in\n    tag_99:\n    tag_98:\n      swap1\n      0x00\n      mstore\n      keccak256(0x00, 0x20)\n      swap1\n      0x03\n      mul\n      add\n        /* \"contracts/hw/ex8.sol\":2008:2025  record[i].account */\n      0x00\n      add\n      0x00\n      swap1\n      sload\n      swap1\n      0x0100\n      exp\n      swap1\n      div\n      0xffffffffffffffffffffffffffffffffffffffff\n      and\n        /* \"contracts/hw/ex8.sol\":2008:2033  record[i].account == addr */\n      0xffffffffffffffffffffffffffffffffffffffff\n      and\n      sub\n        /* \"contracts/hw/ex8.sol\":2004:2086  if (record[i].account == addr) {... */\n      tag_101\n      jumpi\n        /* \"contracts/hw/ex8.sol\":2062:2063  i */\n      dup1\n        /* \"contracts/hw/ex8.sol\":2065:2069  true */\n      0x01\n        /* \"contracts/hw/ex8.sol\":2054:2070  return (i, true) */\n      swap3\n      pop\n      swap3\n      pop\n      pop\n      jump(tag_94)\n        /* \"contracts/hw/ex8.sol\":2004:2086  if (record[i].account == addr) {... */\n    tag_101:\n        /* \"contracts/hw/ex8.sol\":1984:1987  ++i */\n      dup1\n      0x01\n      add\n      swap1\n      pop\n        /* \"contracts/hw/ex8.sol\":1945:2097  for (uint256 i = 0; i < record.length; ++i) {... */\n      jump(tag_95)\n    tag_96:\n      pop\n        /* \"contracts/hw/ex8.sol\":2115:2116  0 */\n      0x00\n        /* \"contracts/hw/ex8.sol\":2118:2123  false */\n      0x00\n        /* \"contracts/hw/ex8.sol\":2107:2124  return (0, false) */\n      swap2\n      pop\n      swap2\n      pop\n        /* \"contracts/hw/ex8.sol\":1842:2132  function getAccountIndex(... */\n    tag_94:\n      swap2\n      pop\n      swap2\n      jump\t// out\n        /* \"contracts/hw/ex8.sol\":2144:2264  function hash(uint256 input) private pure returns (uint256) {... */\n    tag_30:\n        /* \"contracts/hw/ex8.sol\":2195:2202  uint256 */\n      0x00\n        /* \"contracts/hw/ex8.sol\":2230:2255  sha256(abi.encode(input)) */\n      0x02\n        /* \"contracts/hw/ex8.sol\":2248:2253  input */\n      dup3\n        /* \"contracts/hw/ex8.sol\":2237:2254  abi.encode(input) */\n      add(0x20, mload(0x40))\n      tag_103\n      swap2\n      swap1\n      tag_25\n      jump\t// in\n    tag_103:\n      mload(0x40)\n      0x20\n      dup2\n      dup4\n      sub\n      sub\n      dup2\n      mstore\n      swap1\n      0x40\n      mstore\n        /* \"contracts/hw/ex8.sol\":2230:2255  sha256(abi.encode(input)) */\n      mload(0x40)\n      tag_104\n      swap2\n      swap1\n      tag_105\n      jump\t// in\n    tag_104:\n      0x20\n      mload(0x40)\n      dup1\n      dup4\n      sub\n      dup2\n      dup6\n      gas\n      staticcall\n      iszero\n      dup1\n      iszero\n      tag_107\n      jumpi\n      returndatacopy(0x00, 0x00, returndatasize)\n      revert(0x00, returndatasize)\n    tag_107:\n      pop\n      pop\n      pop\n      mload(0x40)\n      returndatasize\n      not(0x1f)\n      0x1f\n      dup3\n      add\n      and\n      dup3\n      add\n      dup1\n      0x40\n      mstore\n      pop\n      dup2\n      add\n      swap1\n      tag_108\n      swap2\n      swap1\n      tag_109\n      jump\t// in\n    tag_108:\n        /* \"contracts/hw/ex8.sol\":2222:2256  uint256(sha256(abi.encode(input))) */\n      0x00\n      shr\n        /* \"contracts/hw/ex8.sol\":2215:2256  return uint256(sha256(abi.encode(input))) */\n      swap1\n      pop\n        /* \"contracts/hw/ex8.sol\":2144:2264  function hash(uint256 input) private pure returns (uint256) {... */\n      swap2\n      swap1\n      pop\n      jump\t// out\n        /* \"#utility.yul\":88:205   */\n    tag_111:\n        /* \"#utility.yul\":197:198   */\n      0x00\n        /* \"#utility.yul\":194:195   */\n      0x00\n        /* \"#utility.yul\":187:199   */\n      revert\n        /* \"#utility.yul\":334:411   */\n    tag_113:\n        /* \"#utility.yul\":371:378   */\n      0x00\n        /* \"#utility.yul\":400:405   */\n      dup2\n        /* \"#utility.yul\":389:405   */\n      swap1\n      pop\n        /* \"#utility.yul\":334:411   */\n      swap2\n      swap1\n      pop\n      jump\t// out\n        /* \"#utility.yul\":417:539   */\n    tag_114:\n        /* \"#utility.yul\":490:514   */\n      tag_135\n        /* \"#utility.yul\":508:513   */\n      dup2\n        /* \"#utility.yul\":490:514   */\n      tag_113\n      jump\t// in\n    tag_135:\n        /* \"#utility.yul\":483:488   */\n      dup2\n        /* \"#utility.yul\":480:515   */\n      eq\n        /* \"#utility.yul\":470:533   */\n      tag_136\n      jumpi\n        /* \"#utility.yul\":529:530   */\n      0x00\n        /* \"#utility.yul\":526:527   */\n      0x00\n        /* \"#utility.yul\":519:531   */\n      revert\n        /* \"#utility.yul\":470:533   */\n    tag_136:\n        /* \"#utility.yul\":417:539   */\n      pop\n      jump\t// out\n        /* \"#utility.yul\":545:684   */\n    tag_115:\n        /* \"#utility.yul\":591:596   */\n      0x00\n        /* \"#utility.yul\":629:635   */\n      dup2\n        /* \"#utility.yul\":616:636   */\n      calldataload\n        /* \"#utility.yul\":607:636   */\n      swap1\n      pop\n        /* \"#utility.yul\":645:678   */\n      tag_138\n        /* \"#utility.yul\":672:677   */\n      dup2\n        /* \"#utility.yul\":645:678   */\n      tag_114\n      jump\t// in\n    tag_138:\n        /* \"#utility.yul\":545:684   */\n      swap3\n      swap2\n      pop\n      pop\n      jump\t// out\n        /* \"#utility.yul\":690:1019   */\n    tag_9:\n        /* \"#utility.yul\":749:755   */\n      0x00\n        /* \"#utility.yul\":798:800   */\n      0x20\n        /* \"#utility.yul\":786:795   */\n      dup3\n        /* \"#utility.yul\":777:784   */\n      dup5\n        /* \"#utility.yul\":773:796   */\n      sub\n        /* \"#utility.yul\":769:801   */\n      slt\n        /* \"#utility.yul\":766:885   */\n      iszero\n      tag_140\n      jumpi\n        /* \"#utility.yul\":804:883   */\n      tag_141\n      tag_111\n      jump\t// in\n    tag_141:\n        /* \"#utility.yul\":766:885   */\n    tag_140:\n        /* \"#utility.yul\":924:925   */\n      0x00\n        /* \"#utility.yul\":949:1002   */\n      tag_142\n        /* \"#utility.yul\":994:1001   */\n      dup5\n        /* \"#utility.yul\":985:991   */\n      dup3\n        /* \"#utility.yul\":974:983   */\n      dup6\n        /* \"#utility.yul\":970:992   */\n      add\n        /* \"#utility.yul\":949:1002   */\n      tag_115\n      jump\t// in\n    tag_142:\n        /* \"#utility.yul\":939:1002   */\n      swap2\n      pop\n        /* \"#utility.yul\":895:1012   */\n      pop\n        /* \"#utility.yul\":690:1019   */\n      swap3\n      swap2\n      pop\n      pop\n      jump\t// out\n        /* \"#utility.yul\":1025:1151   */\n    tag_116:\n        /* \"#utility.yul\":1062:1069   */\n      0x00\n        /* \"#utility.yul\":1102:1144   */\n      0xffffffffffffffffffffffffffffffffffffffff\n        /* \"#utility.yul\":1095:1100   */\n      dup3\n        /* \"#utility.yul\":1091:1145   */\n      and\n        /* \"#utility.yul\":1080:1145   */\n      swap1\n      pop\n        /* \"#utility.yul\":1025:1151   */\n      swap2\n      swap1\n      pop\n      jump\t// out\n        /* \"#utility.yul\":1157:1253   */\n    tag_117:\n        /* \"#utility.yul\":1194:1201   */\n      0x00\n        /* \"#utility.yul\":1223:1247   */\n      tag_145\n        /* \"#utility.yul\":1241:1246   */\n      dup3\n        /* \"#utility.yul\":1223:1247   */\n      tag_116\n      jump\t// in\n    tag_145:\n        /* \"#utility.yul\":1212:1247   */\n      swap1\n      pop\n        /* \"#utility.yul\":1157:1253   */\n      swap2\n      swap1\n      pop\n      jump\t// out\n        /* \"#utility.yul\":1259:1381   */\n    tag_118:\n        /* \"#utility.yul\":1332:1356   */\n      tag_147\n        /* \"#utility.yul\":1350:1355   */\n      dup2\n        /* \"#utility.yul\":1332:1356   */\n      tag_117\n      jump\t// in\n    tag_147:\n        /* \"#utility.yul\":1325:1330   */\n      dup2\n        /* \"#utility.yul\":1322:1357   */\n      eq\n        /* \"#utility.yul\":1312:1375   */\n      tag_148\n      jumpi\n        /* \"#utility.yul\":1371:1372   */\n      0x00\n        /* \"#utility.yul\":1368:1369   */\n      0x00\n        /* \"#utility.yul\":1361:1373   */\n      revert\n        /* \"#utility.yul\":1312:1375   */\n    tag_148:\n        /* \"#utility.yul\":1259:1381   */\n      pop\n      jump\t// out\n        /* \"#utility.yul\":1387:1526   */\n    tag_119:\n        /* \"#utility.yul\":1433:1438   */\n      0x00\n        /* \"#utility.yul\":1471:1477   */\n      dup2\n        /* \"#utility.yul\":1458:1478   */\n      calldataload\n        /* \"#utility.yul\":1449:1478   */\n      swap1\n      pop\n        /* \"#utility.yul\":1487:1520   */\n      tag_150\n        /* \"#utility.yul\":1514:1519   */\n      dup2\n        /* \"#utility.yul\":1487:1520   */\n      tag_118\n      jump\t// in\n    tag_150:\n        /* \"#utility.yul\":1387:1526   */\n      swap3\n      swap2\n      pop\n      pop\n      jump\t// out\n        /* \"#utility.yul\":1532:2151   */\n    tag_17:\n        /* \"#utility.yul\":1609:1615   */\n      0x00\n        /* \"#utility.yul\":1617:1623   */\n      0x00\n        /* \"#utility.yul\":1625:1631   */\n      0x00\n        /* \"#utility.yul\":1674:1676   */\n      0x60\n        /* \"#utility.yul\":1662:1671   */\n      dup5\n        /* \"#utility.yul\":1653:1660   */\n      dup7\n        /* \"#utility.yul\":1649:1672   */\n      sub\n        /* \"#utility.yul\":1645:1677   */\n      slt\n        /* \"#utility.yul\":1642:1761   */\n      iszero\n      tag_152\n      jumpi\n        /* \"#utility.yul\":1680:1759   */\n      tag_153\n      tag_111\n      jump\t// in\n    tag_153:\n        /* \"#utility.yul\":1642:1761   */\n    tag_152:\n        /* \"#utility.yul\":1800:1801   */\n      0x00\n        /* \"#utility.yul\":1825:1878   */\n      tag_154\n        /* \"#utility.yul\":1870:1877   */\n      dup7\n        /* \"#utility.yul\":1861:1867   */\n      dup3\n        /* \"#utility.yul\":1850:1859   */\n      dup8\n        /* \"#utility.yul\":1846:1868   */\n      add\n        /* \"#utility.yul\":1825:1878   */\n      tag_115\n      jump\t// in\n    tag_154:\n        /* \"#utility.yul\":1815:1878   */\n      swap4\n      pop\n        /* \"#utility.yul\":1771:1888   */\n      pop\n        /* \"#utility.yul\":1927:1929   */\n      0x20\n        /* \"#utility.yul\":1953:2006   */\n      tag_155\n        /* \"#utility.yul\":1998:2005   */\n      dup7\n        /* \"#utility.yul\":1989:1995   */\n      dup3\n        /* \"#utility.yul\":1978:1987   */\n      dup8\n        /* \"#utility.yul\":1974:1996   */\n      add\n        /* \"#utility.yul\":1953:2006   */\n      tag_119\n      jump\t// in\n    tag_155:\n        /* \"#utility.yul\":1943:2006   */\n      swap3\n      pop\n        /* \"#utility.yul\":1898:2016   */\n      pop\n        /* \"#utility.yul\":2055:2057   */\n      0x40\n        /* \"#utility.yul\":2081:2134   */\n      tag_156\n        /* \"#utility.yul\":2126:2133   */\n      dup7\n        /* \"#utility.yul\":2117:2123   */\n      dup3\n        /* \"#utility.yul\":2106:2115   */\n      dup8\n        /* \"#utility.yul\":2102:2124   */\n      add\n        /* \"#utility.yul\":2081:2134   */\n      tag_115\n      jump\t// in\n    tag_156:\n        /* \"#utility.yul\":2071:2134   */\n      swap2\n      pop\n        /* \"#utility.yul\":2026:2144   */\n      pop\n        /* \"#utility.yul\":1532:2151   */\n      swap3\n      pop\n      swap3\n      pop\n      swap3\n      jump\t// out\n        /* \"#utility.yul\":2157:2486   */\n    tag_22:\n        /* \"#utility.yul\":2216:2222   */\n      0x00\n        /* \"#utility.yul\":2265:2267   */\n      0x20\n        /* \"#utility.yul\":2253:2262   */\n      dup3\n        /* \"#utility.yul\":2244:2251   */\n      dup5\n        /* \"#utility.yul\":2240:2263   */\n      sub\n        /* \"#utility.yul\":2236:2268   */\n      slt\n        /* \"#utility.yul\":2233:2352   */\n      iszero\n      tag_158\n      jumpi\n        /* \"#utility.yul\":2271:2350   */\n      tag_159\n      tag_111\n      jump\t// in\n    tag_159:\n        /* \"#utility.yul\":2233:2352   */\n    tag_158:\n        /* \"#utility.yul\":2391:2392   */\n      0x00\n        /* \"#utility.yul\":2416:2469   */\n      tag_160\n        /* \"#utility.yul\":2461:2468   */\n      dup5\n        /* \"#utility.yul\":2452:2458   */\n      dup3\n        /* \"#utility.yul\":2441:2450   */\n      dup6\n        /* \"#utility.yul\":2437:2459   */\n      add\n        /* \"#utility.yul\":2416:2469   */\n      tag_119\n      jump\t// in\n    tag_160:\n        /* \"#utility.yul\":2406:2469   */\n      swap2\n      pop\n        /* \"#utility.yul\":2362:2479   */\n      pop\n        /* \"#utility.yul\":2157:2486   */\n      swap3\n      swap2\n      pop\n      pop\n      jump\t// out\n        /* \"#utility.yul\":2492:2610   */\n    tag_120:\n        /* \"#utility.yul\":2579:2603   */\n      tag_162\n        /* \"#utility.yul\":2597:2602   */\n      dup2\n        /* \"#utility.yul\":2579:2603   */\n      tag_113\n      jump\t// in\n    tag_162:\n        /* \"#utility.yul\":2574:2577   */\n      dup3\n        /* \"#utility.yul\":2567:2604   */\n      mstore\n        /* \"#utility.yul\":2492:2610   */\n      pop\n      pop\n      jump\t// out\n        /* \"#utility.yul\":2616:2838   */\n    tag_25:\n        /* \"#utility.yul\":2709:2713   */\n      0x00\n        /* \"#utility.yul\":2747:2749   */\n      0x20\n        /* \"#utility.yul\":2736:2745   */\n      dup3\n        /* \"#utility.yul\":2732:2750   */\n      add\n        /* \"#utility.yul\":2724:2750   */\n      swap1\n      pop\n        /* \"#utility.yul\":2760:2831   */\n      tag_164\n        /* \"#utility.yul\":2828:2829   */\n      0x00\n        /* \"#utility.yul\":2817:2826   */\n      dup4\n        /* \"#utility.yul\":2813:2830   */\n      add\n        /* \"#utility.yul\":2804:2810   */\n      dup5\n        /* \"#utility.yul\":2760:2831   */\n      tag_120\n      jump\t// in\n    tag_164:\n        /* \"#utility.yul\":2616:2838   */\n      swap3\n      swap2\n      pop\n      pop\n      jump\t// out\n        /* \"#utility.yul\":2844:3024   */\n    tag_34:\n        /* \"#utility.yul\":2892:2969   */\n      0x4e487b7100000000000000000000000000000000000000000000000000000000\n        /* \"#utility.yul\":2889:2890   */\n      0x00\n        /* \"#utility.yul\":2882:2970   */\n      mstore\n        /* \"#utility.yul\":2989:2993   */\n      0x32\n        /* \"#utility.yul\":2986:2987   */\n      0x04\n        /* \"#utility.yul\":2979:2994   */\n      mstore\n        /* \"#utility.yul\":3013:3017   */\n      0x24\n        /* \"#utility.yul\":3010:3011   */\n      0x00\n        /* \"#utility.yul\":3003:3018   */\n      revert\n        /* \"#utility.yul\":3030:3210   */\n    tag_121:\n        /* \"#utility.yul\":3078:3155   */\n      0x4e487b7100000000000000000000000000000000000000000000000000000000\n        /* \"#utility.yul\":3075:3076   */\n      0x00\n        /* \"#utility.yul\":3068:3156   */\n      mstore\n        /* \"#utility.yul\":3175:3179   */\n      0x11\n        /* \"#utility.yul\":3172:3173   */\n      0x04\n        /* \"#utility.yul\":3165:3180   */\n      mstore\n        /* \"#utility.yul\":3199:3203   */\n      0x24\n        /* \"#utility.yul\":3196:3197   */\n      0x00\n        /* \"#utility.yul\":3189:3204   */\n      revert\n        /* \"#utility.yul\":3216:3407   */\n    tag_61:\n        /* \"#utility.yul\":3256:3259   */\n      0x00\n        /* \"#utility.yul\":3275:3295   */\n      tag_168\n        /* \"#utility.yul\":3293:3294   */\n      dup3\n        /* \"#utility.yul\":3275:3295   */\n      tag_113\n      jump\t// in\n    tag_168:\n        /* \"#utility.yul\":3270:3295   */\n      swap2\n      pop\n        /* \"#utility.yul\":3309:3329   */\n      tag_169\n        /* \"#utility.yul\":3327:3328   */\n      dup4\n        /* \"#utility.yul\":3309:3329   */\n      tag_113\n      jump\t// in\n    tag_169:\n        /* \"#utility.yul\":3304:3329   */\n      swap3\n      pop\n        /* \"#utility.yul\":3352:3353   */\n      dup3\n        /* \"#utility.yul\":3349:3350   */\n      dup3\n        /* \"#utility.yul\":3345:3354   */\n      add\n        /* \"#utility.yul\":3338:3354   */\n      swap1\n      pop\n        /* \"#utility.yul\":3373:3376   */\n      dup1\n        /* \"#utility.yul\":3370:3371   */\n      dup3\n        /* \"#utility.yul\":3367:3377   */\n      gt\n        /* \"#utility.yul\":3364:3400   */\n      iszero\n      tag_170\n      jumpi\n        /* \"#utility.yul\":3380:3398   */\n      tag_171\n      tag_121\n      jump\t// in\n    tag_171:\n        /* \"#utility.yul\":3364:3400   */\n    tag_170:\n        /* \"#utility.yul\":3216:3407   */\n      swap3\n      swap2\n      pop\n      pop\n      jump\t// out\n        /* \"#utility.yul\":3413:3607   */\n    tag_80:\n        /* \"#utility.yul\":3453:3457   */\n      0x00\n        /* \"#utility.yul\":3473:3493   */\n      tag_173\n        /* \"#utility.yul\":3491:3492   */\n      dup3\n        /* \"#utility.yul\":3473:3493   */\n      tag_113\n      jump\t// in\n    tag_173:\n        /* \"#utility.yul\":3468:3493   */\n      swap2\n      pop\n        /* \"#utility.yul\":3507:3527   */\n      tag_174\n        /* \"#utility.yul\":3525:3526   */\n      dup4\n        /* \"#utility.yul\":3507:3527   */\n      tag_113\n      jump\t// in\n    tag_174:\n        /* \"#utility.yul\":3502:3527   */\n      swap3\n      pop\n        /* \"#utility.yul\":3551:3552   */\n      dup3\n        /* \"#utility.yul\":3548:3549   */\n      dup3\n        /* \"#utility.yul\":3544:3553   */\n      sub\n        /* \"#utility.yul\":3536:3553   */\n      swap1\n      pop\n        /* \"#utility.yul\":3575:3576   */\n      dup2\n        /* \"#utility.yul\":3569:3573   */\n      dup2\n        /* \"#utility.yul\":3566:3577   */\n      gt\n        /* \"#utility.yul\":3563:3600   */\n      iszero\n      tag_175\n      jumpi\n        /* \"#utility.yul\":3580:3598   */\n      tag_176\n      tag_121\n      jump\t// in\n    tag_176:\n        /* \"#utility.yul\":3563:3600   */\n    tag_175:\n        /* \"#utility.yul\":3413:3607   */\n      swap3\n      swap2\n      pop\n      pop\n      jump\t// out\n        /* \"#utility.yul\":3613:3711   */\n    tag_122:\n        /* \"#utility.yul\":3664:3670   */\n      0x00\n        /* \"#utility.yul\":3698:3703   */\n      dup2\n        /* \"#utility.yul\":3692:3704   */\n      mload\n        /* \"#utility.yul\":3682:3704   */\n      swap1\n      pop\n        /* \"#utility.yul\":3613:3711   */\n      swap2\n      swap1\n      pop\n      jump\t// out\n        /* \"#utility.yul\":3717:3864   */\n    tag_123:\n        /* \"#utility.yul\":3818:3829   */\n      0x00\n        /* \"#utility.yul\":3855:3858   */\n      dup2\n        /* \"#utility.yul\":3840:3858   */\n      swap1\n      pop\n        /* \"#utility.yul\":3717:3864   */\n      swap3\n      swap2\n      pop\n      pop\n      jump\t// out\n        /* \"#utility.yul\":3870:4009   */\n    tag_124:\n        /* \"#utility.yul\":3959:3965   */\n      dup3\n        /* \"#utility.yul\":3954:3957   */\n      dup2\n        /* \"#utility.yul\":3949:3952   */\n      dup4\n        /* \"#utility.yul\":3943:3966   */\n      mcopy\n        /* \"#utility.yul\":4000:4001   */\n      0x00\n        /* \"#utility.yul\":3991:3997   */\n      dup4\n        /* \"#utility.yul\":3986:3989   */\n      dup4\n        /* \"#utility.yul\":3982:3998   */\n      add\n        /* \"#utility.yul\":3975:4002   */\n      mstore\n        /* \"#utility.yul\":3870:4009   */\n      pop\n      pop\n      pop\n      jump\t// out\n        /* \"#utility.yul\":4015:4401   */\n    tag_125:\n        /* \"#utility.yul\":4119:4122   */\n      0x00\n        /* \"#utility.yul\":4147:4185   */\n      tag_181\n        /* \"#utility.yul\":4179:4184   */\n      dup3\n        /* \"#utility.yul\":4147:4185   */\n      tag_122\n      jump\t// in\n    tag_181:\n        /* \"#utility.yul\":4201:4289   */\n      tag_182\n        /* \"#utility.yul\":4282:4288   */\n      dup2\n        /* \"#utility.yul\":4277:4280   */\n      dup6\n        /* \"#utility.yul\":4201:4289   */\n      tag_123\n      jump\t// in\n    tag_182:\n        /* \"#utility.yul\":4194:4289   */\n      swap4\n      pop\n        /* \"#utility.yul\":4298:4363   */\n      tag_183\n        /* \"#utility.yul\":4356:4362   */\n      dup2\n        /* \"#utility.yul\":4351:4354   */\n      dup6\n        /* \"#utility.yul\":4344:4348   */\n      0x20\n        /* \"#utility.yul\":4337:4342   */\n      dup7\n        /* \"#utility.yul\":4333:4349   */\n      add\n        /* \"#utility.yul\":4298:4363   */\n      tag_124\n      jump\t// in\n    tag_183:\n        /* \"#utility.yul\":4388:4394   */\n      dup1\n        /* \"#utility.yul\":4383:4386   */\n      dup5\n        /* \"#utility.yul\":4379:4395   */\n      add\n        /* \"#utility.yul\":4372:4395   */\n      swap2\n      pop\n        /* \"#utility.yul\":4123:4401   */\n      pop\n        /* \"#utility.yul\":4015:4401   */\n      swap3\n      swap2\n      pop\n      pop\n      jump\t// out\n        /* \"#utility.yul\":4407:4678   */\n    tag_105:\n        /* \"#utility.yul\":4537:4540   */\n      0x00\n        /* \"#utility.yul\":4559:4652   */\n      tag_185\n        /* \"#utility.yul\":4648:4651   */\n      dup3\n        /* \"#utility.yul\":4639:4645   */\n      dup5\n        /* \"#utility.yul\":4559:4652   */\n      tag_125\n      jump\t// in\n    tag_185:\n        /* \"#utility.yul\":4552:4652   */\n      swap2\n      pop\n        /* \"#utility.yul\":4669:4672   */\n      dup2\n        /* \"#utility.yul\":4662:4672   */\n      swap1\n      pop\n        /* \"#utility.yul\":4407:4678   */\n      swap3\n      swap2\n      pop\n      pop\n      jump\t// out\n        /* \"#utility.yul\":4684:4761   */\n    tag_126:\n        /* \"#utility.yul\":4721:4728   */\n      0x00\n        /* \"#utility.yul\":4750:4755   */\n      dup2\n        /* \"#utility.yul\":4739:4755   */\n      swap1\n      pop\n        /* \"#utility.yul\":4684:4761   */\n      swap2\n      swap1\n      pop\n      jump\t// out\n        /* \"#utility.yul\":4767:4889   */\n    tag_127:\n        /* \"#utility.yul\":4840:4864   */\n      tag_188\n        /* \"#utility.yul\":4858:4863   */\n      dup2\n        /* \"#utility.yul\":4840:4864   */\n      tag_126\n      jump\t// in\n    tag_188:\n        /* \"#utility.yul\":4833:4838   */\n      dup2\n        /* \"#utility.yul\":4830:4865   */\n      eq\n        /* \"#utility.yul\":4820:4883   */\n      tag_189\n      jumpi\n        /* \"#utility.yul\":4879:4880   */\n      0x00\n        /* \"#utility.yul\":4876:4877   */\n      0x00\n        /* \"#utility.yul\":4869:4881   */\n      revert\n        /* \"#utility.yul\":4820:4883   */\n    tag_189:\n        /* \"#utility.yul\":4767:4889   */\n      pop\n      jump\t// out\n        /* \"#utility.yul\":4895:5038   */\n    tag_128:\n        /* \"#utility.yul\":4952:4957   */\n      0x00\n        /* \"#utility.yul\":4983:4989   */\n      dup2\n        /* \"#utility.yul\":4977:4990   */\n      mload\n        /* \"#utility.yul\":4968:4990   */\n      swap1\n      pop\n        /* \"#utility.yul\":4999:5032   */\n      tag_191\n        /* \"#utility.yul\":5026:5031   */\n      dup2\n        /* \"#utility.yul\":4999:5032   */\n      tag_127\n      jump\t// in\n    tag_191:\n        /* \"#utility.yul\":4895:5038   */\n      swap3\n      swap2\n      pop\n      pop\n      jump\t// out\n        /* \"#utility.yul\":5044:5395   */\n    tag_109:\n        /* \"#utility.yul\":5114:5120   */\n      0x00\n        /* \"#utility.yul\":5163:5165   */\n      0x20\n        /* \"#utility.yul\":5151:5160   */\n      dup3\n        /* \"#utility.yul\":5142:5149   */\n      dup5\n        /* \"#utility.yul\":5138:5161   */\n      sub\n        /* \"#utility.yul\":5134:5166   */\n      slt\n        /* \"#utility.yul\":5131:5250   */\n      iszero\n      tag_193\n      jumpi\n        /* \"#utility.yul\":5169:5248   */\n      tag_194\n      tag_111\n      jump\t// in\n    tag_194:\n        /* \"#utility.yul\":5131:5250   */\n    tag_193:\n        /* \"#utility.yul\":5289:5290   */\n      0x00\n        /* \"#utility.yul\":5314:5378   */\n      tag_195\n        /* \"#utility.yul\":5370:5377   */\n      dup5\n        /* \"#utility.yul\":5361:5367   */\n      dup3\n        /* \"#utility.yul\":5350:5359   */\n      dup6\n        /* \"#utility.yul\":5346:5368   */\n      add\n        /* \"#utility.yul\":5314:5378   */\n      tag_128\n      jump\t// in\n    tag_195:\n        /* \"#utility.yul\":5304:5378   */\n      swap2\n      pop\n        /* \"#utility.yul\":5260:5388   */\n      pop\n        /* \"#utility.yul\":5044:5395   */\n      swap3\n      swap2\n      pop\n      pop\n      jump\t// out\n\n    auxdata: 0xa2646970667358221220b68d3f55c8eed25808a308a5819fa0b96357b4615a7c1dabf37511d26107c53f64736f6c634300081e0033\n}\n",
				"bytecode": {
					"linkReferences": {},
					"object": "6080604052348015600e575f5ffd5b506108d28061001c5f395ff3fe60806040526004361061003e575f3560e01c8063835fc6ca14610042578063b6b55f251461006a578063f8548e3614610086578063f8b2cb4f146100ae575b5f5ffd5b34801561004d575f5ffd5b50610068600480360381019061006391906105ee565b6100ea565b005b610084600480360381019061007f91906105ee565b6101fa565b005b348015610091575f5ffd5b506100ac60048036038101906100a79190610673565b61033b565b005b3480156100b9575f5ffd5b506100d460048036038101906100cf91906106c3565b610448565b6040516100e191906106fd565b60405180910390f35b5f5f6100f533610495565b915091505f61010384610540565b905081801561013357505f83815481106101205761011f610716565b5b905f5260205f2090600302016001015481145b801561016157505f5f848154811061014e5761014d610716565b5b905f5260205f2090600302016002015414155b156101f4573373ffffffffffffffffffffffffffffffffffffffff166108fc5f858154811061019357610192610716565b5b905f5260205f2090600302016002015490811502906040515f60405180830381858888f193505050501580156101cb573d5f5f3e3d5ffd5b505f5f84815481106101e0576101df610716565b5b905f5260205f209060030201600201819055505b50505050565b5f5f61020533610495565b915091505f61021384610540565b90508115610282575f838154811061022e5761022d610716565b5b905f5260205f20906003020160010154840361027d57345f848154811061025857610257610716565b5b905f5260205f2090600302016002015f8282546102759190610770565b925050819055505b610335565b5f60405180606001604052803373ffffffffffffffffffffffffffffffffffffffff16815260200183815260200134815250908060018154018082558091505060019003905f5260205f2090600302015f909190919091505f820151815f015f6101000a81548173ffffffffffffffffffffffffffffffffffffffff021916908373ffffffffffffffffffffffffffffffffffffffff160217905550602082015181600101556040820151816002015550505b50505050565b5f5f61034633610495565b915091505f61035486610540565b905081801561038457505f838154811061037157610370610716565b5b905f5260205f2090600302016001015481145b80156103b25750835f848154811061039f5761039e610716565b5b905f5260205f2090600302016002015410155b1561044057835f84815481106103cb576103ca610716565b5b905f5260205f2090600302016002015f8282546103e891906107a3565b925050819055506103f885610495565b8093508194505050811561043f57835f848154811061041a57610419610716565b5b905f5260205f2090600302016002015f8282546104379190610770565b925050819055505b5b505050505050565b5f5f5f61045484610495565b91509150801561048a575f828154811061047157610470610716565b5b905f5260205f2090600302016002015492505050610490565b5f925050505b919050565b5f5f5f5f90505b5f80549050811015610533578373ffffffffffffffffffffffffffffffffffffffff165f82815481106104d2576104d1610716565b5b905f5260205f2090600302015f015f9054906101000a900473ffffffffffffffffffffffffffffffffffffffff1673ffffffffffffffffffffffffffffffffffffffff160361052857806001925092505061053b565b80600101905061049c565b505f5f915091505b915091565b5f60028260405160200161055491906106fd565b6040516020818303038152906040526040516105709190610828565b602060405180830381855afa15801561058b573d5f5f3e3d5ffd5b5050506040513d601f19601f820116820180604052508101906105ae9190610871565b5f1c9050919050565b5f5ffd5b5f819050919050565b6105cd816105bb565b81146105d7575f5ffd5b50565b5f813590506105e8816105c4565b92915050565b5f60208284031215610603576106026105b7565b5b5f610610848285016105da565b91505092915050565b5f73ffffffffffffffffffffffffffffffffffffffff82169050919050565b5f61064282610619565b9050919050565b61065281610638565b811461065c575f5ffd5b50565b5f8135905061066d81610649565b92915050565b5f5f5f6060848603121561068a576106896105b7565b5b5f610697868287016105da565b93505060206106a88682870161065f565b92505060406106b9868287016105da565b9150509250925092565b5f602082840312156106d8576106d76105b7565b5b5f6106e58482850161065f565b91505092915050565b6106f7816105bb565b82525050565b5f6020820190506107105f8301846106ee565b92915050565b7f4e487b71000000000000000000000000000000000000000000000000000000005f52603260045260245ffd5b7f4e487b71000000000000000000000000000000000000000000000000000000005f52601160045260245ffd5b5f61077a826105bb565b9150610785836105bb565b925082820190508082111561079d5761079c610743565b5b92915050565b5f6107ad826105bb565b91506107b8836105bb565b92508282039050818111156107d0576107cf610743565b5b92915050565b5f81519050919050565b5f81905092915050565b8281835e5f83830152505050565b5f610802826107d6565b61080c81856107e0565b935061081c8185602086016107ea565b80840191505092915050565b5f61083382846107f8565b915081905092915050565b5f819050919050565b6108508161083e565b811461085a575f5ffd5b50565b5f8151905061086b81610847565b92915050565b5f60208284031215610886576108856105b7565b5b5f6108938482850161085d565b9150509291505056fea2646970667358221220b68d3f55c8eed25808a308a5819fa0b96357b4615a7c1dabf37511d26107c53f64736f6c634300081e0033",
					"opcodes": "PUSH1 0x80 PUSH1 0x40 MSTORE CALLVALUE DUP1 ISZERO PUSH1 0xE JUMPI PUSH0 PUSH0 REVERT JUMPDEST POP PUSH2 0x8D2 DUP1 PUSH2 0x1C PUSH0 CODECOPY PUSH0 RETURN INVALID PUSH1 0x80 PUSH1 0x40 MSTORE PUSH1 0x4 CALLDATASIZE LT PUSH2 0x3E JUMPI PUSH0 CALLDATALOAD PUSH1 0xE0 SHR DUP1 PUSH4 0x835FC6CA EQ PUSH2 0x42 JUMPI DUP1 PUSH4 0xB6B55F25 EQ PUSH2 0x6A JUMPI DUP1 PUSH4 0xF8548E36 EQ PUSH2 0x86 JUMPI DUP1 PUSH4 0xF8B2CB4F EQ PUSH2 0xAE JUMPI JUMPDEST PUSH0 PUSH0 REVERT JUMPDEST CALLVALUE DUP1 ISZERO PUSH2 0x4D JUMPI PUSH0 PUSH0 REVERT JUMPDEST POP PUSH2 0x68 PUSH1 0x4 DUP1 CALLDATASIZE SUB DUP2 ADD SWAP1 PUSH2 0x63 SWAP2 SWAP1 PUSH2 0x5EE JUMP JUMPDEST PUSH2 0xEA JUMP JUMPDEST STOP JUMPDEST PUSH2 0x84 PUSH1 0x4 DUP1 CALLDATASIZE SUB DUP2 ADD SWAP1 PUSH2 0x7F SWAP2 SWAP1 PUSH2 0x5EE JUMP JUMPDEST PUSH2 0x1FA JUMP JUMPDEST STOP JUMPDEST CALLVALUE DUP1 ISZERO PUSH2 0x91 JUMPI PUSH0 PUSH0 REVERT JUMPDEST POP PUSH2 0xAC PUSH1 0x4 DUP1 CALLDATASIZE SUB DUP2 ADD SWAP1 PUSH2 0xA7 SWAP2 SWAP1 PUSH2 0x673 JUMP JUMPDEST PUSH2 0x33B JUMP JUMPDEST STOP JUMPDEST CALLVALUE DUP1 ISZERO PUSH2 0xB9 JUMPI PUSH0 PUSH0 REVERT JUMPDEST POP PUSH2 0xD4 PUSH1 0x4 DUP1 CALLDATASIZE SUB DUP2 ADD SWAP1 PUSH2 0xCF SWAP2 SWAP1 PUSH2 0x6C3 JUMP JUMPDEST PUSH2 0x448 JUMP JUMPDEST PUSH1 0x40 MLOAD PUSH2 0xE1 SWAP2 SWAP1 PUSH2 0x6FD JUMP JUMPDEST PUSH1 0x40 MLOAD DUP1 SWAP2 SUB SWAP1 RETURN JUMPDEST PUSH0 PUSH0 PUSH2 0xF5 CALLER PUSH2 0x495 JUMP JUMPDEST SWAP2 POP SWAP2 POP PUSH0 PUSH2 0x103 DUP5 PUSH2 0x540 JUMP JUMPDEST SWAP1 POP DUP2 DUP1 ISZERO PUSH2 0x133 JUMPI POP PUSH0 DUP4 DUP2 SLOAD DUP2 LT PUSH2 0x120 JUMPI PUSH2 0x11F PUSH2 0x716 JUMP JUMPDEST JUMPDEST SWAP1 PUSH0 MSTORE PUSH1 0x20 PUSH0 KECCAK256 SWAP1 PUSH1 0x3 MUL ADD PUSH1 0x1 ADD SLOAD DUP2 EQ JUMPDEST DUP1 ISZERO PUSH2 0x161 JUMPI POP PUSH0 PUSH0 DUP5 DUP2 SLOAD DUP2 LT PUSH2 0x14E JUMPI PUSH2 0x14D PUSH2 0x716 JUMP JUMPDEST JUMPDEST SWAP1 PUSH0 MSTORE PUSH1 0x20 PUSH0 KECCAK256 SWAP1 PUSH1 0x3 MUL ADD PUSH1 0x2 ADD SLOAD EQ ISZERO JUMPDEST ISZERO PUSH2 0x1F4 JUMPI CALLER PUSH20 0xFFFFFFFFFFFFFFFFFFFFFFFFFFFFFFFFFFFFFFFF AND PUSH2 0x8FC PUSH0 DUP6 DUP2 SLOAD DUP2 LT PUSH2 0x193 JUMPI PUSH2 0x192 PUSH2 0x716 JUMP JUMPDEST JUMPDEST SWAP1 PUSH0 MSTORE PUSH1 0x20 PUSH0 KECCAK256 SWAP1 PUSH1 0x3 MUL ADD PUSH1 0x2 ADD SLOAD SWAP1 DUP2 ISZERO MUL SWAP1 PUSH1 0x40 MLOAD PUSH0 PUSH1 0x40 MLOAD DUP1 DUP4 SUB DUP2 DUP6 DUP9 DUP9 CALL SWAP4 POP POP POP POP ISZERO DUP1 ISZERO PUSH2 0x1CB JUMPI RETURNDATASIZE PUSH0 PUSH0 RETURNDATACOPY RETURNDATASIZE PUSH0 REVERT JUMPDEST POP PUSH0 PUSH0 DUP5 DUP2 SLOAD DUP2 LT PUSH2 0x1E0 JUMPI PUSH2 0x1DF PUSH2 0x716 JUMP JUMPDEST JUMPDEST SWAP1 PUSH0 MSTORE PUSH1 0x20 PUSH0 KECCAK256 SWAP1 PUSH1 0x3 MUL ADD PUSH1 0x2 ADD DUP2 SWAP1 SSTORE POP JUMPDEST POP POP POP POP JUMP JUMPDEST PUSH0 PUSH0 PUSH2 0x205 CALLER PUSH2 0x495 JUMP JUMPDEST SWAP2 POP SWAP2 POP PUSH0 PUSH2 0x213 DUP5 PUSH2 0x540 JUMP JUMPDEST SWAP1 POP DUP2 ISZERO PUSH2 0x282 JUMPI PUSH0 DUP4 DUP2 SLOAD DUP2 LT PUSH2 0x22E JUMPI PUSH2 0x22D PUSH2 0x716 JUMP JUMPDEST JUMPDEST SWAP1 PUSH0 MSTORE PUSH1 0x20 PUSH0 KECCAK256 SWAP1 PUSH1 0x3 MUL ADD PUSH1 0x1 ADD SLOAD DUP5 SUB PUSH2 0x27D JUMPI CALLVALUE PUSH0 DUP5 DUP2 SLOAD DUP2 LT PUSH2 0x258 JUMPI PUSH2 0x257 PUSH2 0x716 JUMP JUMPDEST JUMPDEST SWAP1 PUSH0 MSTORE PUSH1 0x20 PUSH0 KECCAK256 SWAP1 PUSH1 0x3 MUL ADD PUSH1 0x2 ADD PUSH0 DUP3 DUP3 SLOAD PUSH2 0x275 SWAP2 SWAP1 PUSH2 0x770 JUMP JUMPDEST SWAP3 POP POP DUP2 SWAP1 SSTORE POP JUMPDEST PUSH2 0x335 JUMP JUMPDEST PUSH0 PUSH1 0x40 MLOAD DUP1 PUSH1 0x60 ADD PUSH1 0x40 MSTORE DUP1 CALLER PUSH20 0xFFFFFFFFFFFFFFFFFFFFFFFFFFFFFFFFFFFFFFFF AND DUP2 MSTORE PUSH1 0x20 ADD DUP4 DUP2 MSTORE PUSH1 0x20 ADD CALLVALUE DUP2 MSTORE POP SWAP1 DUP1 PUSH1 0x1 DUP2 SLOAD ADD DUP1 DUP3 SSTORE DUP1 SWAP2 POP POP PUSH1 0x1 SWAP1 SUB SWAP1 PUSH0 MSTORE PUSH1 0x20 PUSH0 KECCAK256 SWAP1 PUSH1 0x3 MUL ADD PUSH0 SWAP1 SWAP2 SWAP1 SWAP2 SWAP1 SWAP2 POP PUSH0 DUP3 ADD MLOAD DUP2 PUSH0 ADD PUSH0 PUSH2 0x100 EXP DUP2 SLOAD DUP2 PUSH20 0xFFFFFFFFFFFFFFFFFFFFFFFFFFFFFFFFFFFFFFFF MUL NOT AND SWAP1 DUP4 PUSH20 0xFFFFFFFFFFFFFFFFFFFFFFFFFFFFFFFFFFFFFFFF AND MUL OR SWAP1 SSTORE POP PUSH1 0x20 DUP3 ADD MLOAD DUP2 PUSH1 0x1 ADD SSTORE PUSH1 0x40 DUP3 ADD MLOAD DUP2 PUSH1 0x2 ADD SSTORE POP POP JUMPDEST POP POP POP POP JUMP JUMPDEST PUSH0 PUSH0 PUSH2 0x346 CALLER PUSH2 0x495 JUMP JUMPDEST SWAP2 POP SWAP2 POP PUSH0 PUSH2 0x354 DUP7 PUSH2 0x540 JUMP JUMPDEST SWAP1 POP DUP2 DUP1 ISZERO PUSH2 0x384 JUMPI POP PUSH0 DUP4 DUP2 SLOAD DUP2 LT PUSH2 0x371 JUMPI PUSH2 0x370 PUSH2 0x716 JUMP JUMPDEST JUMPDEST SWAP1 PUSH0 MSTORE PUSH1 0x20 PUSH0 KECCAK256 SWAP1 PUSH1 0x3 MUL ADD PUSH1 0x1 ADD SLOAD DUP2 EQ JUMPDEST DUP1 ISZERO PUSH2 0x3B2 JUMPI POP DUP4 PUSH0 DUP5 DUP2 SLOAD DUP2 LT PUSH2 0x39F JUMPI PUSH2 0x39E PUSH2 0x716 JUMP JUMPDEST JUMPDEST SWAP1 PUSH0 MSTORE PUSH1 0x20 PUSH0 KECCAK256 SWAP1 PUSH1 0x3 MUL ADD PUSH1 0x2 ADD SLOAD LT ISZERO JUMPDEST ISZERO PUSH2 0x440 JUMPI DUP4 PUSH0 DUP5 DUP2 SLOAD DUP2 LT PUSH2 0x3CB JUMPI PUSH2 0x3CA PUSH2 0x716 JUMP JUMPDEST JUMPDEST SWAP1 PUSH0 MSTORE PUSH1 0x20 PUSH0 KECCAK256 SWAP1 PUSH1 0x3 MUL ADD PUSH1 0x2 ADD PUSH0 DUP3 DUP3 SLOAD PUSH2 0x3E8 SWAP2 SWAP1 PUSH2 0x7A3 JUMP JUMPDEST SWAP3 POP POP DUP2 SWAP1 SSTORE POP PUSH2 0x3F8 DUP6 PUSH2 0x495 JUMP JUMPDEST DUP1 SWAP4 POP DUP2 SWAP5 POP POP POP DUP2 ISZERO PUSH2 0x43F JUMPI DUP4 PUSH0 DUP5 DUP2 SLOAD DUP2 LT PUSH2 0x41A JUMPI PUSH2 0x419 PUSH2 0x716 JUMP JUMPDEST JUMPDEST SWAP1 PUSH0 MSTORE PUSH1 0x20 PUSH0 KECCAK256 SWAP1 PUSH1 0x3 MUL ADD PUSH1 0x2 ADD PUSH0 DUP3 DUP3 SLOAD PUSH2 0x437 SWAP2 SWAP1 PUSH2 0x770 JUMP JUMPDEST SWAP3 POP POP DUP2 SWAP1 SSTORE POP JUMPDEST JUMPDEST POP POP POP POP POP POP JUMP JUMPDEST PUSH0 PUSH0 PUSH0 PUSH2 0x454 DUP5 PUSH2 0x495 JUMP JUMPDEST SWAP2 POP SWAP2 POP DUP1 ISZERO PUSH2 0x48A JUMPI PUSH0 DUP3 DUP2 SLOAD DUP2 LT PUSH2 0x471 JUMPI PUSH2 0x470 PUSH2 0x716 JUMP JUMPDEST JUMPDEST SWAP1 PUSH0 MSTORE PUSH1 0x20 PUSH0 KECCAK256 SWAP1 PUSH1 0x3 MUL ADD PUSH1 0x2 ADD SLOAD SWAP3 POP POP POP PUSH2 0x490 JUMP JUMPDEST PUSH0 SWAP3 POP POP POP JUMPDEST SWAP2 SWAP1 POP JUMP JUMPDEST PUSH0 PUSH0 PUSH0 PUSH0 SWAP1 POP JUMPDEST PUSH0 DUP1 SLOAD SWAP1 POP DUP2 LT ISZERO PUSH2 0x533 JUMPI DUP4 PUSH20 0xFFFFFFFFFFFFFFFFFFFFFFFFFFFFFFFFFFFFFFFF AND PUSH0 DUP3 DUP2 SLOAD DUP2 LT PUSH2 0x4D2 JUMPI PUSH2 0x4D1 PUSH2 0x716 JUMP JUMPDEST JUMPDEST SWAP1 PUSH0 MSTORE PUSH1 0x20 PUSH0 KECCAK256 SWAP1 PUSH1 0x3 MUL ADD PUSH0 ADD PUSH0 SWAP1 SLOAD SWAP1 PUSH2 0x100 EXP SWAP1 DIV PUSH20 0xFFFFFFFFFFFFFFFFFFFFFFFFFFFFFFFFFFFFFFFF AND PUSH20 0xFFFFFFFFFFFFFFFFFFFFFFFFFFFFFFFFFFFFFFFF AND SUB PUSH2 0x528 JUMPI DUP1 PUSH1 0x1 SWAP3 POP SWAP3 POP POP PUSH2 0x53B JUMP JUMPDEST DUP1 PUSH1 0x1 ADD SWAP1 POP PUSH2 0x49C JUMP JUMPDEST POP PUSH0 PUSH0 SWAP2 POP SWAP2 POP JUMPDEST SWAP2 POP SWAP2 JUMP JUMPDEST PUSH0 PUSH1 0x2 DUP3 PUSH1 0x40 MLOAD PUSH1 0x20 ADD PUSH2 0x554 SWAP2 SWAP1 PUSH2 0x6FD JUMP JUMPDEST PUSH1 0x40 MLOAD PUSH1 0x20 DUP2 DUP4 SUB SUB DUP2 MSTORE SWAP1 PUSH1 0x40 MSTORE PUSH1 0x40 MLOAD PUSH2 0x570 SWAP2 SWAP1 PUSH2 0x828 JUMP JUMPDEST PUSH1 0x20 PUSH1 0x40 MLOAD DUP1 DUP4 SUB DUP2 DUP6 GAS STATICCALL ISZERO DUP1 ISZERO PUSH2 0x58B JUMPI RETURNDATASIZE PUSH0 PUSH0 RETURNDATACOPY RETURNDATASIZE PUSH0 REVERT JUMPDEST POP POP POP PUSH1 0x40 MLOAD RETURNDATASIZE PUSH1 0x1F NOT PUSH1 0x1F DUP3 ADD AND DUP3 ADD DUP1 PUSH1 0x40 MSTORE POP DUP2 ADD SWAP1 PUSH2 0x5AE SWAP2 SWAP1 PUSH2 0x871 JUMP JUMPDEST PUSH0 SHR SWAP1 POP SWAP2 SWAP1 POP JUMP JUMPDEST PUSH0 PUSH0 REVERT JUMPDEST PUSH0 DUP2 SWAP1 POP SWAP2 SWAP1 POP JUMP JUMPDEST PUSH2 0x5CD DUP2 PUSH2 0x5BB JUMP JUMPDEST DUP2 EQ PUSH2 0x5D7 JUMPI PUSH0 PUSH0 REVERT JUMPDEST POP JUMP JUMPDEST PUSH0 DUP2 CALLDATALOAD SWAP1 POP PUSH2 0x5E8 DUP2 PUSH2 0x5C4 JUMP JUMPDEST SWAP3 SWAP2 POP POP JUMP JUMPDEST PUSH0 PUSH1 0x20 DUP3 DUP5 SUB SLT ISZERO PUSH2 0x603 JUMPI PUSH2 0x602 PUSH2 0x5B7 JUMP JUMPDEST JUMPDEST PUSH0 PUSH2 0x610 DUP5 DUP3 DUP6 ADD PUSH2 0x5DA JUMP JUMPDEST SWAP2 POP POP SWAP3 SWAP2 POP POP JUMP JUMPDEST PUSH0 PUSH20 0xFFFFFFFFFFFFFFFFFFFFFFFFFFFFFFFFFFFFFFFF DUP3 AND SWAP1 POP SWAP2 SWAP1 POP JUMP JUMPDEST PUSH0 PUSH2 0x642 DUP3 PUSH2 0x619 JUMP JUMPDEST SWAP1 POP SWAP2 SWAP1 POP JUMP JUMPDEST PUSH2 0x652 DUP2 PUSH2 0x638 JUMP JUMPDEST DUP2 EQ PUSH2 0x65C JUMPI PUSH0 PUSH0 REVERT JUMPDEST POP JUMP JUMPDEST PUSH0 DUP2 CALLDATALOAD SWAP1 POP PUSH2 0x66D DUP2 PUSH2 0x649 JUMP JUMPDEST SWAP3 SWAP2 POP POP JUMP JUMPDEST PUSH0 PUSH0 PUSH0 PUSH1 0x60 DUP5 DUP7 SUB SLT ISZERO PUSH2 0x68A JUMPI PUSH2 0x689 PUSH2 0x5B7 JUMP JUMPDEST JUMPDEST PUSH0 PUSH2 0x697 DUP7 DUP3 DUP8 ADD PUSH2 0x5DA JUMP JUMPDEST SWAP4 POP POP PUSH1 0x20 PUSH2 0x6A8 DUP7 DUP3 DUP8 ADD PUSH2 0x65F JUMP JUMPDEST SWAP3 POP POP PUSH1 0x40 PUSH2 0x6B9 DUP7 DUP3 DUP8 ADD PUSH2 0x5DA JUMP JUMPDEST SWAP2 POP POP SWAP3 POP SWAP3 POP SWAP3 JUMP JUMPDEST PUSH0 PUSH1 0x20 DUP3 DUP5 SUB SLT ISZERO PUSH2 0x6D8 JUMPI PUSH2 0x6D7 PUSH2 0x5B7 JUMP JUMPDEST JUMPDEST PUSH0 PUSH2 0x6E5 DUP5 DUP3 DUP6 ADD PUSH2 0x65F JUMP JUMPDEST SWAP2 POP POP SWAP3 SWAP2 POP POP JUMP JUMPDEST PUSH2 0x6F7 DUP2 PUSH2 0x5BB JUMP JUMPDEST DUP3 MSTORE POP POP JUMP JUMPDEST PUSH0 PUSH1 0x20 DUP3 ADD SWAP1 POP PUSH2 0x710 PUSH0 DUP4 ADD DUP5 PUSH2 0x6EE JUMP JUMPDEST SWAP3 SWAP2 POP POP JUMP JUMPDEST PUSH32 0x4E487B7100000000000000000000000000000000000000000000000000000000 PUSH0 MSTORE PUSH1 0x32 PUSH1 0x4 MSTORE PUSH1 0x24 PUSH0 REVERT JUMPDEST PUSH32 0x4E487B7100000000000000000000000000000000000000000000000000000000 PUSH0 MSTORE PUSH1 0x11 PUSH1 0x4 MSTORE PUSH1 0x24 PUSH0 REVERT JUMPDEST PUSH0 PUSH2 0x77A DUP3 PUSH2 0x5BB JUMP JUMPDEST SWAP2 POP PUSH2 0x785 DUP4 PUSH2 0x5BB JUMP JUMPDEST SWAP3 POP DUP3 DUP3 ADD SWAP1 POP DUP1 DUP3 GT ISZERO PUSH2 0x79D JUMPI PUSH2 0x79C PUSH2 0x743 JUMP JUMPDEST JUMPDEST SWAP3 SWAP2 POP POP JUMP JUMPDEST PUSH0 PUSH2 0x7AD DUP3 PUSH2 0x5BB JUMP JUMPDEST SWAP2 POP PUSH2 0x7B8 DUP4 PUSH2 0x5BB JUMP JUMPDEST SWAP3 POP DUP3 DUP3 SUB SWAP1 POP DUP2 DUP2 GT ISZERO PUSH2 0x7D0 JUMPI PUSH2 0x7CF PUSH2 0x743 JUMP JUMPDEST JUMPDEST SWAP3 SWAP2 POP POP JUMP JUMPDEST PUSH0 DUP2 MLOAD SWAP1 POP SWAP2 SWAP1 POP JUMP JUMPDEST PUSH0 DUP2 SWAP1 POP SWAP3 SWAP2 POP POP JUMP JUMPDEST DUP3 DUP2 DUP4 MCOPY PUSH0 DUP4 DUP4 ADD MSTORE POP POP POP JUMP JUMPDEST PUSH0 PUSH2 0x802 DUP3 PUSH2 0x7D6 JUMP JUMPDEST PUSH2 0x80C DUP2 DUP6 PUSH2 0x7E0 JUMP JUMPDEST SWAP4 POP PUSH2 0x81C DUP2 DUP6 PUSH1 0x20 DUP7 ADD PUSH2 0x7EA JUMP JUMPDEST DUP1 DUP5 ADD SWAP2 POP POP SWAP3 SWAP2 POP POP JUMP JUMPDEST PUSH0 PUSH2 0x833 DUP3 DUP5 PUSH2 0x7F8 JUMP JUMPDEST SWAP2 POP DUP2 SWAP1 POP SWAP3 SWAP2 POP POP JUMP JUMPDEST PUSH0 DUP2 SWAP1 POP SWAP2 SWAP1 POP JUMP JUMPDEST PUSH2 0x850 DUP2 PUSH2 0x83E JUMP JUMPDEST DUP2 EQ PUSH2 0x85A JUMPI PUSH0 PUSH0 REVERT JUMPDEST POP JUMP JUMPDEST PUSH0 DUP2 MLOAD SWAP1 POP PUSH2 0x86B DUP2 PUSH2 0x847 JUMP JUMPDEST SWAP3 SWAP2 POP POP JUMP JUMPDEST PUSH0 PUSH1 0x20 DUP3 DUP5 SUB SLT ISZERO PUSH2 0x886 JUMPI PUSH2 0x885 PUSH2 0x5B7 JUMP JUMPDEST JUMPDEST PUSH0 PUSH2 0x893 DUP5 DUP3 DUP6 ADD PUSH2 0x85D JUMP JUMPDEST SWAP2 POP POP SWAP3 SWAP2 POP POP JUMP INVALID LOG2 PUSH5 0x6970667358 0x22 SLT KECCAK256 0xB6 DUP14 EXTCODEHASH SSTORE 0xC8 RETURNCONTRACT 0xD2 PC ADDMOD LOG3 ADDMOD 0xA5 DUP2 SWAP16 LOG0 0xB9 PUSH4 0x57B4615A PUSH29 0x1DABF37511D26107C53F64736F6C634300081E00330000000000000000 "
				},
				"gasEstimates": {
					"creation": {
						"codeDepositCost": "451600",
						"executionCost": "484",
						"totalCost": "452084"
					},
					"external": {
						"deposit(uint256)": "infinite",
						"getBalance(address)": "infinite",
						"transfer(uint256,address,uint256)": "infinite",
						"withdrawal(uint256)": "infinite"
					},
					"internal": {
						"getAccountIndex(address)": "infinite",
						"hash(uint256)": "infinite"
					}
				},
				"methodIdentifiers": {
					"deposit(uint256)": "b6b55f25",
					"getBalance(address)": "f8b2cb4f",
					"transfer(uint256,address,uint256)": "f8548e36",
					"withdrawal(uint256)": "835fc6ca"
				}
			},
			"storageLayout": {
				"storage": [
					{
						"astId": 12,
						"contract": "contracts/hw/ex8.sol:Example04",
						"label": "record",
						"offset": 0,
						"slot": "0",
						"type": "t_array(t_struct(Wallet)8_storage)dyn_storage"
					}
				],
				"types": {
					"t_address": {
						"encoding": "inplace",
						"label": "address",
						"numberOfBytes": "20"
					},
					"t_array(t_struct(Wallet)8_storage)dyn_storage": {
						"base": "t_struct(Wallet)8_storage",
						"encoding": "dynamic_array",
						"label": "struct Example04.Wallet[]",
						"numberOfBytes": "32"
					},
					"t_struct(Wallet)8_storage": {
						"encoding": "inplace",
						"label": "struct Example04.Wallet",
						"members": [
							{
								"astId": 3,
								"contract": "contracts/hw/ex8.sol:Example04",
								"label": "account",
								"offset": 0,
								"slot": "0",
								"type": "t_address"
							},
							{
								"astId": 5,
								"contract": "contracts/hw/ex8.sol:Example04",
								"label": "passwordHash",
								"offset": 0,
								"slot": "1",
								"type": "t_uint256"
							},
							{
								"astId": 7,
								"contract": "contracts/hw/ex8.sol:Example04",
								"label": "amount",
								"offset": 0,
								"slot": "2",
								"type": "t_uint256"
							}
						],
						"numberOfBytes": "96"
					},
					"t_uint256": {
						"encoding": "inplace",
						"label": "uint256",
						"numberOfBytes": "32"
					}
				}
			},
			"userdoc": {
				"kind": "user",
				"methods": {},
				"version": 1
			}
		}
	}
}